:020000040000fa
:100000000200d2021003000000000002100b0000ea
:10001000000000021013000000000002101b00008e
:10002000000000021023000000000002102b00005e
:10003000000000021033000000000002103b00002e
:10004000000000021043000000000002104b0000fe
:10005000000000021053000000000002105b0000ce
:10006000000000021063000000000002106b00009e
:10007000000000021073000000000002107b00006e
:10008000000000021083000000000002108b00003e
:100090000000000208c3e4900002781a790280028e
:1000a000f0a3d8fcd9fa7a1b7b019000e478107990
:1000b000018015e493a3ad82ae838a828b83f0a383
:1000c000aa82ab838d828e83d8e9d9e7120572129a
:1000d00008e275d00075813f751c8075931e5392a0
:1000e000fe020096001000100000f800ffff001054
:1000f0000000ffe4936670130874019366700c08a7
:10010000740293667005087403936622c008c3e006
:1001100096f50808a3e096420808a3e0964208086e
:10012000a3e09645087001d3d00822c3e493960853
:100130007401939608740293960874039396226050
:1001400016080808c6c313c618c613c618c613c6b1
:1001500018c613c6d5e0ea22e026f008a3e036f080
:1001600008a3e036f008a3e036f022e056f608a334
:10017000e056f608a3e056f608a3e056f622e0f6ad
:1001800008a3e0f608a3e0f608a3e0f622c9c0e061
:10019000e7f20809e7f20809e7f20809e7f2d0e018
:1001a000f922e6f008a3e6f008a3e6f008a3e6f0db
:1001b00022cac0e0e6f30908dafad0e0fa22cac09f
:1001c000e0e2f30908dafad0e0fa22700422600dc6
:1001d00018c6c333c608c633c6d5e0f41822e47384
:1001e0005392fed083d082251cf8c51cc39824fbf3
:1001f000cef208e520f208e9c0e07908e709f20844
:10020000defad0e0f9eff208d0e0fed0e0f208ee3e
:10021000f208e473a81ce2fe08e208f520e9c0e059
:100220007908e208f709dffae208ffd0e0f9e2080e
:10023000c0e0e208c0e0881c5392fe22e584f20888
:10024000e585f222e208f584e2f585227402800059
:10025000c9c0e0e51cc399f51cc91201b1d0e0f991
:100260002274028000c9c0e0e51cc399f51cc912c4
:1002700001bed0e0f922d083d082ecc0e0edc0e036
:10028000eec0e0efc0e0e493a3fce493a3fde493ad
:10029000a3fee493a3ffef4e4d4c60151202f2ec67
:1002a00024fffced34fffdee34fffeef34ffff8052
:1002b000e5e493a3fce493a3fde493a3fee493a3fa
:1002c000ffef4e4d4c601512032fec24fffced3474
:1002d000fffdee34fffeef34ffff80e5d0e0ffd0fe
:1002e000e0fed0e0fdd0e0fce493a3c0e0e493c0e6
:1002f000e022c0e0c0f088f012012ba8f040071205
:1003000000f3a8f0701aa3a3a3a312012ba8f0a3d3
:10031000a3a3a34013d0f0d0e0d0e0d0e00202dcf1
:10032000a3a3a3a3a3a3a3a3a3a3d0f0d0e022c01d
:10033000e0c0f088f01200f3a8f0a3a3a3a3700b11
:10034000d0f0d0e0d0e0d0e00202dca3a3d0f0d027
:10035000e02275bc0075bc005392fe22800f8a8299
:100360008b835392fee0f5bda3aa82ab83ecf8ed3c
:10037000f9e824ff1ce934fffde84970e15392fedf
:1003800022e5bdf9e5bcfae9fb5392fe227400f5c3
:10039000d374022408f5d25392fe22a2afe433f8bc
:1003a000c2af5392fe906270e0a2e740f5e9c3331a
:1003b000906272f0906270e0d2e0f0e0a2e740fb61
:1003c000e8a2e092af2274fa1201e0a2af33f8c2c1
:1003d000afed900002f0eca3f0a37462f0a374738d
:1003e000f0a3e4f0e9a3f0a37412f0a37442f0ebdd
:1003f000906272f0ea906271f07400f5d575d402e3
:1004000075d601906270e0d2e1f0e0a2e740fbe82f
:10041000a2e092af7f010202145392fe906276e056
:1004200054706430700478038002780775c6807455
:1004300080659e70fa9062707408f088c790ff2cf7
:10044000e0f5f1a3e0f5f3a3e0f5f4a3e0f5f59012
:10045000ff2be0f8700b90ff3012049190ff0680a4
:100460000e740168701890ff0212049190ff30e042
:10047000f5f8a3e0f5fba3e0f5fca3e0f5faa2fe96
:10048000500ee5f1a2e14008e5ff543f4440f5ff7e
:1004900022e0f586a3e0f5c4a3e0f5c5a3e0f5c22c
:1004a00022c008c0098908750900740b7808120178
:1004b000cbfae5094480fbd009d0085392fe2274a0
:1004c000f71201e0909093e064bf7063e5c7f50810
:1004d00012035275c7007c937d007a007b90120353
:1004e0005c7c5d7d077aa37b9012035c909094e026
:1004f00014f5097f00801674032ffef91204a1ee93
:10050000c4540ff5c77c007d0812035c0fefc39540
:100510000940e48508c71203818a088b09a808a945
:1005200009909095e0687003a3e069703e8038e51b
:10053000c7f5087fa57e02eef91204a18a828b839b
:10054000eec4540ff5c778007908e02fffa3e82424
:10055000ff18e934fff9e84970f00eeec39430401b
:10056000d68508c7ef70047901800279007f040204
:100570000214e51c24ecf51c5392fe900001e0905f
:10058000001af0e59d541864107005e0a2e04035b3
:10059000e5c7f8790075c700909000e0640270012b
:1005a0000988c7e9a2e0501d1204bfe96017900056
:1005b000017403f0059290011be0f582a3e0f5833e
:1005c00005921201de120419900001e4f012038d6d
:1005d00012078912076d12018d780812024c12075a
:1005e000581205ed051c051c12089580fbeec0e0b5
:1005f000a81c1202611207a5051c051cd0e0fe22f2
:1006000074f71201e0151c151ca81c12023ce51c15
:1006100024ecf51ceafeebffee2404f584e43ff540
:10062000858e828f83780812017e900121780812ce
:10063000016b78081202760000000005000000003f
:100640000000002d07000009002d07000009015fd0
:100650000600000902b706000009032607920605f6
:1006600092780812017e0592900125780812010cfb
:100670004032120752f2087480f2087401f2e4f575
:1006800008f509780812024c1207581205ed051cee
:10069000051ce51c2414f51ca81c120244051c05ad
:1006a0001c02056d90011d78081201a2120752f27a
:1006b00008e4f208f280c890011d780812017ee576
:1006c000095407f9e50849701490011d78081201d2
:1006d0007e740b780812013fa90812039b0592e073
:1006e000f9ee2405fce43ffd059290011d78081207
:1006f000017e7402780812013faa08ab091203c6f2
:100700000592e0f508e4f509f50af50b059290016c
:100710001d78081201581207407402f208e4f2082a
:10072000f2f508020683120740740380820592e006
:10073000600912076d12018d02068375c90880fedb
:1007400012074422e4a81cf2087402f2087409f2a9
:1007500008221207447401227c007d00e51c24025b
:10076000faab93e51c2403f8e22404f922a81c74d4
:1007700080f2087404f2087409f208e4f2f508f54e
:1007800009f50af50b087408225392fe90ff2be03e
:10079000f87006900129e4f0227401687006900157
:1007a000297401f02274fa1201e0151c151ca81c12
:1007b00012023ce9fe8a828b83e51c2408f8e2fae7
:1007c00008e2fb0592900129e06020e06401604ba3
:1007d000a81c120244051c051c7f01020214e586b8
:1007e000a2e040fa5392fee0f5c1a3eeff74ff2fa2
:1007f0001e0470ea12088660d7e586a2e040fa8af5
:10080000828b835392fee0f5c1a3aa82ab8380e47e
:10081000a2f840fc5392fee0f5f9a374ff2e1e04eb
:1008200070ee12088660a9a2f840fc8a828b83537e
:1008300092fee0f5f9a3aa82ab8380e6c084c0856e
:100840008011e586a2e2500be5c18a828b83f0aa73
:1008500084ab851208866026e586a2e24004a2faef
:1008600050f68a848b85439201a30592900129e07a
:1008700060d0640170dda2fa50d9e5f980ccd08552
:10088000d0845392fe22ecf8edf9e824ff1ce93401
:10089000fffde849227c047d007a1b7b0012083ca6
:1008a00090001be05407f9a3e0fce9fdec4d600764
:1008b0007a1f7b0012083c7a1b7b00120600225331
:1008c00092fe2274fa1201e0151c151ceafeebffe1
:1008d000a81ceef208eff2aa1cab9379011208bf34
:1008e00080ee12009322ffffffffffffffffffffdd
:1008f000ffffffffffffffffffffffffffffffff08
:10090000fffffffffffffffffffffffffffffffff7
:10091000ffffffffffffffffffffffffffffffffe7
:10092000ffffffffffffffffffffffffffffffffd7
:100f000012010002000000205824feff0000010230
:100f1000030109021b0001010480250904000000ef
:100f2000fe01020409210d03e84000010104030948
:100f300004120342006c00750065006700690067d9
:100f400000610016034c006f007700200045006e22
:100f50000065007200670079000a03310032003337
:100f6000003400080344004600550000ffffffff67
:100f7000ffffffffffffffffffffffffffffffff81
:100f8000ffffffffffffffffffffffffffffffff71
:100f9000ffffffffffffffffffffffffffffffff61
:100fa000ffffffffffffffffffffffffffffffff51
:100fb000ffffffffffffffffffffffffffffffff41
:100fc000ffffffffffffffffffffffffffffffff31
:100fd000ffffffffffffffffffffffffffffffff21
:100fe000ffffffffffffffffffffffffffffffff11
:100ff000ffffffffffffffffffffffffffffffff01
:101000000211080230e5ffffffffff023d20ffff56
:10101000ffffff023dcfffffffffff023e86ffff06
:10102000ffffff0225c0ffffffffff023ae6ffffc1
:10103000ffffffffffffffffffffff023e26ffff57
:10104000ffffff023daaffffffffffffffffffffc4
:10105000ffffff0230cbffffffffffffffffffffa0
:10106000ffffffffffffffffffffff023c5dfffff2
:10107000ffffff023ef8ffffffffff023ce0ffff24
:10108000ffffff0230f0ffffffffffffffffffff4b
:10109000ffffffbf2c5d13000000000000000000f8
:1010a00000000a7582fe75837f7400121123e479b3
:1010b000347802b800028004f709d8fce4900302f7
:1010c00078e379058002f0a3d8fcd9fa7ae47b07ab
:1010d000901144786379028015e493a3ad82ae83c6
:1010e0008a828b83f0a3aa82ab838d828e83d8e918
:1010f000d9e77582487583e774021211237582b8a7
:101100007583eb740212112375d00075813f753120
:1011100000753202753303759f007593005392fe7c
:101120000210aec09ff59fe473d09f225392fed071
:1011300083d082c09fe493c0e0740193c0e0740246
:1011400093f59f220300000201020300000f00c379
:10115000a88ee8b19dcf7f5eb98b9f41efb055f46b
:1011600001fa00960064004b0032001e001400d605
:10117000be898e000106021213151429417671fff3
:10118000c1fbe84c90728be7b3518963ab23230218
:10119000841872aa612f3b51a8e53749fbc9ca0cd4
:1011a00018532cfd45e300400000fffffffffaff4e
:1011b000ffff0000800062000000ff7f00000500cc
:1011c000060007000000010001000001000102020a
:1011d0000300020000000000020201000240420f72
:1011e0000019000000093d0000e4fffffffb349bf5
:1011f0005f8000008000100000000000000200007e
:1012000000ff0000000000080501000000000001d0
:101210000805000000000000070300000080000136
:10122000000080000004000000000007090000002a
:101230000d00000104070000000000020100000290
:10124000020000070a161b1c1b221b281b2e1b3426
:101250001b9e1ab41c961c1a1d021d081d8000043a
:1012600005800004060600000080000402800004df
:1012700004800002000b000000800006002c17cc48
:101280001360195014141dba1cdc1b201d981a542d
:101290000601ffffff0000000080ffffffff0000ce
:1012a0000000c000000012112c36c10212112c4e99
:1012b000c10212112c79c10212112cc6c1021211e5
:1012c0002cdec10212112c06c20212112c56c202cf
:1012d00012112c86c20212112ce7c20212112c0329
:1012e000c30212112c1fc30212112c44c30212118b
:1012f0002c9dc30212112c2cc80212112ce0c80222
:1013000012112c28e80212112c40e80212112cb103
:10131000e80212112cf4e80212112c95d2021211db
:101320002c29d30212112c9fd30212112cb5d302f7
:1013300012112ce1d30212112cf6d30212112c4ff0
:10134000d40212112c70d40212112cced40212111c
:101350002c13d50212112c84d50212112cafd502f8
:1013600012112c33d60212112c62d60212112c81ca
:10137000d60212112c95d60212112cdad6021211b5
:101380002c28d70212112cdbcd0212112cf7cd0222
:1013900012112c2dce0212112c3bce0212112c6cec
:1013a000ce0212112c99ce0212112ca2ce021211d1
:1013b0002ce5ce0212112c6bcf0212112cd8cf02c9
:1013c00012112c29d00212112c58d00212112cac5f
:1013d000d00212112c7ed10212112c89d1021211cd
:1013e0002cbcd10212112cedd10212112c3ed202d2
:1013f00012112c7bd20212112cbaea0212112cda31
:10140000ea0212112c03eb0212112c3aea02121119
:101410002c4eea0212112ca8ea0212112ce77f00ce
:1014200012112cb7e90212112ce4e90212112c5c02
:10143000f40112112cc3f40112112c09f50112113f
:101440002c32f50112112c3ef50112112c61f5011f
:1014500012112ca5f50112112cecf50112112c4ad8
:10146000f60112112c9df70112112c64f8011211d2
:101470002c0bf90112112c31f90112112c75f90103
:1014800012112c00fa0112112c15fa0112112c5311
:10149000fa0112112c73fa0112112cd5fa01121152
:1014a0002ce8fa0112112cd3fb0112112cd7fc01ec
:1014b00012112c49fd0112112cd33f0012112c796d
:1014c000410012112cfd410012112c514300121148
:1014d0002cc0430012112cfa430012112cc44400fa
:1014e00012112c45450012112c2d460012112c45cd
:1014f000470012112c37480012112c7149001211ab
:101500002cca490012112c324a0012112caf4a0089
:1015100012112c504b0012112cc24b0012112c5bdb
:101520004c0012112cc14c0012112c2f4d00121125
:101530002c844d0012112c0c4e0012112cc24e00a6
:1015400012112c784f0012112c3a510012112c68f4
:10155000530012112cad530012112c2954001211fa
:101560002c92540012112ce0540012112c8c5600b5
:1015700012112c2c570012112cb8570012112cf9f3
:10158000570012112c7a590012112cdb590012113c
:101590002cef5a0012112ce55b0012112c145d0087
:1015a00012112c4f5e0012112c27600012112ce535
:1015b000620012112c83630012112c2f640012118f
:1015c0002c20650012112c93650012112cf7690074
:1015d00012112c726c0012112c406d0012112c9201
:1015e0006f0012112ca8700012112cd17100121171
:1015f0002ce8710012112c43da0212112c82da024b
:1016000012112cafda0212112cdcda0212112cc9e1
:10161000db0212112ca0dc0212112c7ffe01121130
:101620002cd8fe0112112c39ff0112112c0080015f
:1016300012112c1e800112112c3b800112112c580a
:10164000800112112c80810112112c98830112113a
:101650002cfe830112112c87840112112cc78401e6
:1016600012112cfb840112112c3d850112112cab9f
:10167000850112112c59860112112c678601121155
:101680002c9e870112112cd4890112112c5a8a0127
:1016900012112c8e8a0112112cd28b0112112cfbeb
:1016a0008c0112112c1b8d0112112c428d01121173
:1016b0002c7e8d0112112cb18d0112112c9e9101e5
:1016c00012112cc6910112112c12920112112ce749
:1016d000970112112c33980112112c7498011211d8
:1016e0002c20990112112ce7990112112c749c01e4
:1016f00012112cce9d0112112c3e9e0112112c8232
:10170000a00112112cf9a00112112c3da1011211fe
:101710002c89a10112112ce1a10112112c82a2012c
:1017200012112ccca20112112c27a30112112c3161
:10173000a30112112c68a40112112c10a501121181
:101740002c96a50112112cf1a50112112cb1a601a4
:1017500012112c52a70112112cefa80112112c10fa
:10176000a90112112c4aab0112112c7cac011211ef
:101770002c21ad0112112c82ad0112112c5bae0196
:1017800012112c61af0112112c59b00112112c6ae7
:10179000b00112112c74b00112112c71b20112118e
:1017a0002cceb20112112cfdb20112112c64b30126
:1017b00012112c93b30112112c26b40112112cba60
:1017c000b40112112c1bb50112112c91b50112118b
:1017d0002cc7b50112112cfcb50112112c1bb6013e
:1017e00012112c74b60112112c8eb60112112cbbe1
:1017f000b60112112cc9b60112112c08b701121131
:101800002c77b70112112cfde20212112cb9e30260
:1018100012112cdbe30212112c26e40212112c69a6
:10182000e40212112c9aeb0212112cc0e1011211e8
:101830002cece10112112c34e20112112c90e20186
:1018400012112cf1e20112112cb6e30112112cd16c
:10185000e40112112c63e60112112c0cea011211a1
:101860002ceaeb0112112cecee0112112c30ef01dd
:1018700012112c1cf00112112c21f10112112c9bc0
:10188000f20112112c10f30112112c3af401121171
:101890002c2ed70212112c5ad70212112c71d702fa
:1018a00012112c75d70212112c0fd80212112caa6a
:1018b000d90212112c00800212112c668002121122
:1018c0002c83800212112cb0800212112cdc8002b9
:1018d00012112c10810212112c5f810212112c8e18
:1018e000810212112cf1810212112c4e820212116e
:1018f0002c1c830212112c96830212112c378502a4
:1019000012112cef850212112c78880212112cf87a
:101910008b0212112c398c0212112c928c02121192
:101920002c428d0212112c0d8f0212112c9d8f0250
:1019300012112cde8f0212112c34900212112c8cf9
:10194000900212112cb2900212112c059102121168
:101950002c46910212112cb7920212112cd893022c
:1019600012112ce9930212112c82950212112c985b
:10197000950212112cc0950212112c5e96021211c2
:101980002c73960212112ca5960212112cab970201
:1019900012112c42980212112c78980212112cc0ac
:1019a000980212112cb4990212112c0f9a021211e2
:1019b0002cf69a0212112c699b0212112cad9b027b
:1019c00012112c939c0212112cfb9e0212112c2b33
:1019d0009f0212112cab9f0212112cbbe4021211b8
:1019e0002cc8e40212112cebe40212112c2ee60298
:1019f00012112c3be60212112c69e60212112cfc8a
:101a0000c80212112c1bc90212112ce6c9021211b4
:101a10002c8ccb0212112ceacb0212112c3fcd02de
:101a200012112ca8cd0212112c22e90212112c50f5
:101a3000e90212112c7ae90212112ce6dc021211d1
:101a40002c6fdd0212112ca1dd0212112c11de020d
:101a500012112cb3de0212112ce1de0212112cb293
:101a60007f0012112cbe7f0012112c3db801121103
:101a70002c93b80112112c5bb90112112c6ebb0111
:101a800012112c0cbd0112112cd2bd0112112ce22d
:101a9000be0112112c82bf0112112cffbf011211c5
:101aa0002cb7c00112112c1fc30112112c9fc301ae
:101ab00012112c03c40112112cadc40112112cac53
:101ac000c50112112cb1c60112112c48cb01121103
:101ad0002c95cd0112112c40d00112112c0dd301e7
:101ae00012112c0bd60112112ccad70112112c5431
:101af000da0112112ceade0112112c33e00112116d
:101b00002cbfe00112112c49e10112112c9de101c1
:101b100012112c1fe10212112c9de10212112cb3a3
:101b2000e10212112cc9e10212112cdfe1021211a3
:101b30002c00e20212112c16e20212112c2ce202ed
:101b400012112c88b00212112c18b10212112c9b08
:101b5000b10212112cc1b10212112c8db20212115c
:101b60002c43b30212112c83b30212112c09b402bc
:101b700012112c7bb40212112cddb40212112c5a5a
:101b8000b50212112c6db50212112c81b502121181
:101b90002cb6b50212112ce8b50212112c1ab6029d
:101ba00012112c60b60212112ca0b60212112cf4e4
:101bb000b60212112c03b70212112c0cb70212112b
:101bc0002c9fb70212112cd6b80212112cf37800f8
:101bd00012112c02790012112c007a0012112c1211
:101be0007a0012112ca07b0012112c557c001211ce
:101bf0002cbe7c0012112cd77c0012112ced7c0025
:101c000012112c277d0012112c6a7d0012112cb4a8
:101c10007d0012112cfd7d0012112cc87e001211c6
:101c20002cd67e0012112cde7e0012112c067f00b5
:101c300012112c1f7f0012112c447f0012112c64f2
:101c40007f0012112c747f0012112c847f0012115e
:101c50002c967f0012112ca47f0012112c72e60228
:101c600012112c9fe60212112c14a00212112c3812
:101c7000a00212112c4da00212112ceba002121185
:101c80002c11a10212112c44a10212112ccbad0275
:101c900012112cfdad0212112c00b00212112c32c7
:101ca000df0212112c94df0212112cb8df02121184
:101cb0002c07e00212112c5be00212112cfce00256
:101cc00012112c15e10212112cf8b80212112c1568
:101cd000b90212112c25ba0212112c84ba02121167
:101ce0002c2cbb0212112cabbc0212112c57bd02c2
:101cf00012112ca5bd0212112c0abe0212112c7059
:101d0000be0212112cc2be0212112c4ebf021211c1
:101d10002cc9bf0212112ca2c00212112cc6eb0258
:101d200012112ccaeb0212112ccceb0212112cd284
:101d3000eb0212112ca3100012112c91ff011211b1
:101d40002c18eb0212112c6beb02e066701008a34a
:101d5000e066700a08a3e066700408a3e06622c388
:101d6000e7960809e7960809e7960809e796a2d2d8
:101d700065d03322c3e09608a3e09608a3e0960856
:101d8000a3e096a2d265d03322c021c3e096f5210c
:101d900008a3e096422108a3e096422108a3e0961a
:101da0004221a2d265d033e5217001d3d02122c3d4
:101db000e7960809e7960809e7960809e79622c317
:101dc000e09608a3e09608a3e09608a3e09622c058
:101dd00021c3e096f52108a3e096422108a3e096ee
:101de000422108a3e09645217001d3d021220808a2
:101df00008eac0e0ebc0e086f0e7a4fa180986f034
:101e0000e7a42afa180986f0e7a42afa180986f046
:101e1000e7a42afa1986f0e7a4fbe5f02afa1908e4
:101e200086f0e7a42bfbe5f03afa190886f0e7a460
:101e30002bfbe5f03afa18180986f0e7a4c5f02b59
:101e4000fbe43afa1908e7c5f0c6a426f6e5f03b2c
:101e5000fbe43afa1886f0e7a4f6e5f00826f6e483
:101e60003b08f6e43a08f6d0e0fbd0e0fa22e4cff3
:101e7000c0e0e4cec0e0e4cdc0e0e4ccc0e075f06a
:101e800020e626f608e633f608e633f608e633f6eb
:101e9000181818ec33fced33fdee33feef33ffc3bf
:101ea000ec9709ed9709ee9709ef97191919400f6b
:101eb000ffec97fc09ed97fd09ee97fe191906d581
:101ec000f0bfecf709edf709eef709eff71919196b
:101ed000d0e0fcd0e0fdd0e0fed0e0ff22121f45b4
:101ee000181818121e6e121f3419191922121f34d5
:101ef000191919080808e618181820e7e0121e6ecc
:101f0000121f4518181822090909e719191920e79d
:101f1000dc080808e618181820e703021e6e121fd6
:101f200045181818121e6e121f45181818121f3463
:101f300019191922e4c397f709e497f709e497f709
:101f400009e497f722e4c396f608e496f608e496c7
:101f5000f608e496f6226017080808c6a2e713c63a
:101f600018c613c618c613c618c613c6d5e0e9228c
:101f70006016080808c6c313c618c613c618c613c9
:101f8000c618c613c6d5e0ea227009080808226000
:101f900016181818c6c333c608c633c608c633c6d3
:101fa00008c633c6d5e0ea22e627f60809e637f682
:101fb0000809e637f60809e637f622e026f608a310
:101fc000e036f608a3e036f608a3e036f622e0266f
:101fd000f008a3e036f008a3e036f008a3e036f0fe
:101fe00022c3e697f60809e697f60809e697f60889
:101ff00009e697f622c3e0c696f608a3e0c696f671
:1020000008a3e0c696f608a3e0c696f622e056f6c8
:1020100008a3e056f608a3e056f608a3e056f62219
:10202000e647f60809e647f60809e647f60809e62e
:1020300047f622e046f608a3e046f608a3e046f697
:1020400008a3e046f622e046f008a3e046f008a325
:10205000e046f008a3e046f022e066f608a3e0665a
:10206000f608a3e066f608a3e066f622e0f608a309
:10207000e0f608a3e0f608a3e0f622e6f008a3e6ff
:10208000f008a3e6f008a3e6f022e0faa3e0fba341
:10209000e0fca3e0fd22eaf0a3ebf0a3ecf0a3ed5b
:1020a000f022e0fca3e0fda3e0fea3e0ff22ecf0c1
:1020b000a3edf0a3eef0a3eff022e0f8a3e0f9a384
:1020c000e0faa3e0fb22e8f0a3e9f0a3eaf0a3eb37
:1020d000f022cac0e0e6f0a308dafad0e0fa22ca99
:1020e000c0e0e0a30592f0a30592daf6d0e0ca22a0
:1020f0005392fefae9fb7921e7f0a309dafae8f056
:10210000a3ebf9f0a3ecf0a3edf0a3eef0a3eff056
:10211000a3e520f0a3e5f0f0a3e592f0a3e584f0b9
:10212000a3e585f0a3e581f0a3e531f0a3e532f066
:10213000a3e533f0a3d0e0fad0e0f0a3caf0eac000
:10214000e0e0c0e07a007b00225392fecac0e0ebe0
:10215000c0e07921e0f7a309dafae0f8a3e0f9a3f7
:10216000e0fca3e0fda3e0fea3e0ffa3e0f520a3d5
:10217000e0f5f0a3e0c0e0a3e0f584a3e0f585a3db
:10218000d0e0f592d0e0fbd0e0fae0f581a3e0f5f5
:1021900031a3e0f532a3e0f533a3d0e0d0e0e0c016
:1021a000e0a3e0c0e0ea4b70027a0122b90010bb64
:1021b0000008e88af084f8aaf022e4fbc8fa22ebcf
:1021c00070227b10c833c8c933c9335007c39ac3c0
:1021d000dbf280069a50012adbeac833f4c8c9331f
:1021e000f4c9fa2275f008e4c833c8c933c933c941
:1021f0009ac99b5004c92ac93bd5f0ecfbc833f4fb
:10220000c8e4c9fa22600d08c6a2e713c618c613af
:10221000c6d5e0f322600c08c6c313c618c613c6a1
:10222000d5e0f422700422600d18c6c333c608c678
:1022300033c6d5e0f41822253210af08f532400c31
:1022400015338008f53240021533d2af2200c0d0da
:10225000253210af08f532500c05338008f53250a6
:10226000020533d2afd0d0222532f58210af08f567
:1022700032400c15338008f53240021533d2af8559
:10228000338322c5822532c582c583353310af071b
:10229000f5338582328007f533858232d2afc5832c
:1022a000222532f582e43533f583222532f584e4a4
:1022b0003533f585222532f8e43533f9222532fa13
:1022c000e43533fb222532fce43533fd22e473533d
:1022d00092fe2532c582c0e0e53334ffc583c0e0fd
:1022e000e532c3958224f810af08858333858232a6
:1022f0008008858333858232d2afcef0a3e520f00b
:10230000a37821e608f0a3defaeff0a3e58124fa32
:10231000f8e608f0a3e608f0a3e608f0a30808e64c
:1023200008f0a3e608f0a315811581d0e0fed0e007
:10233000f8158115811581e8c0e0eec0e0225392c6
:10234000fe2532c582c0e0e53334ffc583c0e0e539
:1023500032c3958224f910af088583338582328099
:1023600008858333858232d2afcef0a3e520f0a377
:102370007821e608f0a3defaeff0a3e58124fbf86c
:10238000e608f0a3e608f0a30808e608f0a3e608cc
:10239000f0a315811581d0e0fed0e0f815811581fc
:1023a000e8c0e0eec0e0225392fe8533838532829e
:1023b000e0a3fee0a3f5207821e0a3f608dffae031
:1023c000a3ffe0a3c0e0e0a3c0e0e0a3c0e0e0a37f
:1023d000c0e0e0a3c0e010af08858232858333807f
:1023e00008858232858333d2afd083d0825392fe68
:1023f0000211295392fe853383853282e0a3fee0e9
:10240000a3f5207821e0a3f608dffae0a3ffe0a31c
:10241000c0e0e0a3c0e0e0a3c0e0e0a3c0e010aff4
:10242000088582328583338008858232858333d262
:10243000afd083d0825392fe22c0925392fec0d07e
:102440002532c582c0e0e53334ffc583c0e0e53204
:10245000c3958224f210af088583338582328008c9
:10246000858333858232d2afc8f0a3e9f0a3eaf0c6
:10247000a3ebf0a37921e709f0a3d8faecf0a3ede0
:10248000f0a3eef0a3eff0a3d0e0f0a3d0e0f0a330
:10249000d0e0f0a3e520f0a3e5f0f0a3d0e0f02237
:1024a0005392fe853383853282e0c0e0a3e0f9a336
:1024b000e0faa3e0fba37821e0f608a3dffae0fc52
:1024c000a3e0fda3e0fea3e0ffa3e0c0e0a3e0c023
:1024d000e0a3e0f5d0a3e0f520a3e0a3f5f0e0a3ae
:1024e000c0e010af0885833385823280088583334e
:1024f000858232d2afd0e0d082d083f592d0e0f89e
:10250000d0e032e584f0a3e585f022e0a3f584e095
:10251000f5852274048006740280027401c0e0f420
:1025200004122268d0e01220d222740480067402c1
:1025300080027401c0e0f404122268d0e01220dfaf
:1025400022d083d082c5f0e493a3c5f0c395f0f503
:10255000f0e493a3c395f04005e5f0048001e47531
:10256000f002a42582f582e5f03583f583e493a398
:10257000c0e0e493c0e022d083d082e9c0e0e493dd
:10258000a3c386f0c5f095f0f908e493a386f0c5df
:10259000f095f0700be493a3c3994005e904800221
:1025a000a3e475f002a42582f582e5f03583f58376
:1025b000d0e0f9e493a3c0e0e493c0e022ffffff82
:1025c000c0e0c0d075d008c092c082c083c0f07592
:1025d0009800e5a8f8c2af5392fe9004d8e0d2e18b
:1025e000f0753400e8a2e7e433fee8a2e792af1208
:1025f00012eed0f0d083d082d092d0d0d0e032c0d2
:1026000082c0835392fe9004a7e4f0a3f0a3f0a34a
:10261000f0d083d0822274f712233e79001219d8a9
:102620009003ef123854eac398f8eb99f9e82404c0
:10263000fee439ff9003fc122f29c3ee9cef9d406e
:10264000299003fa122f299003fee02af8a3e03b19
:10265000f9e8c39cf8e99df9122f38a3ecf0a3ed3b
:10266000f09003fcecf0a3ed80239003ef122b0e0f
:102670009003fc122c579003fc1238549003f11273
:102680002f3b9003f8e070047402800114f07aed9f
:102690007b0312385e800ff08532828533831225ea
:1026a0000b740212224d7f020223f374f712233eb1
:1026b000e9fe9003f9e0f8ee600924fe601d146065
:1026c0001a80329003f6e0a2e35009e860279003f5
:1026d000f9148020c2e2f0d2e380199003f6e0a260
:1026e000e2500c740868600d9003f9e0048005c2a4
:1026f000e3f0d2e2f09003f7e070089003f574ff86
:10270000f0804990600a1228ad49703d90618fe0d9
:10271000c0e09003f9e0f87408c398f8d0e0b8007e
:10272000028004c313d8fcf52174ff652170099061
:10273000600ae4f0a3048010e5212401f8e43400e9
:10274000f990600ae8f0a3e9f01226160226a674b2
:10275000f712233ee9fe24fc600624fe602a800d69
:102760009004c0e06401705d1216f6805890041a5f
:10277000e064017013900414e4f0ee700b7b091216
:10278000302cfa7900123b95900414e07008900404
:102790001274fff0802f90618fe0ff79001219d83a
:1027a0008b22a922900416e02af8a3e039f9740fcd
:1027b0005ffae82af8e439f990040c122f3b7a0a00
:1027c0007b0412385e0226a674f712233e74fe12b2
:1027d00022681225039004641228ad2412fae43909
:1027e000fb90605ce060088a828b83e0d2e1f0e8d5
:1027f0002430fce439fde82432f584e439f5859091
:10280000605ae0700690605ee060368a828b83e0fa
:10281000a2e14019d2e1f0e82422f582e439f583ff
:10282000122b041222248c828d83123301e4059230
:10283000f0a3f079008532828533835392fe02261d
:102840009ee8122bc839f58312384b858482858522
:1028500083e02ef0a3e03ff08c828d830592e0fcb4
:10286000a3e0fdc30592e09ca3e09d50c688828949
:1028700083a3a3a3a3a3a3a3a3a385828485838502
:102880008a828b83e0a2e1500474088002743e05c2
:1028900092f07b02888289830592a3a3a3a3a3a3ba
:1028a000a3a3e0fa7900123b957901808812385889
:1028b000e82274f512233e74fe12226812250312d8
:1028c0002f09f584e43ff5850592e0fc7003022aa8
:1028d000ffee242ef582e43ff58305921238548ee4
:1028e000828f83a3a3a3a3a3a3a3a385822385830a
:1028f000248e828f83a3a3a3a3a3a3a3a3a3aa82ab
:10290000ab83ee24341235ef687003a3e069701acc
:1029100074026c7003022a9874016c607b74096cf9
:1029200060258a828b8374228059ec14606a14704b
:1029300003022a9824fa601c14600c146046147078
:1029400003022adb022aff906008e0a2e65003029d
:102950002aff8030ee2439f582e43ff58380138826
:10296000828983a3a3a3e064037003022aff888201
:1029700089831228ad4970e78a828b83e0641370e3
:10298000037416f07b02852382852483e0fa7900a4
:10299000123b957901022b01ee2455123929ee24c0
:1029a0004cfce43ffdea24fff521eb34fff522e582
:1029b00021687003e522697079ee244d122b918e07
:1029c000828f83122b0c8c828d83e025e0f8e43318
:1029d000f9e82403f85001098e828f83a3a3a3a3ef
:1029e000122f3c900495e0a2e0500d8e828f83a3bd
:1029f000a3a3a3a3a3122f3b9004afe4f0a3f0a3df
:102a0000f0a37402f0900495e0a2e04003022affd4
:102a1000906062e4f08c828d83e0f875f0e2a4c8e7
:102a2000aaf075f004a42af9e8122efe122f3b0238
:102a30002affea687002eb696003022aff75210928
:102a40007522007821122517ee241bfae43ffb12b1
:102a50001d3e740212224d900495e0a2e05007ee54
:102a6000faeffb123263e40592f0ee2422f582e4e1
:102a70003ff5830592122b04122224ee2430f582b6
:102a8000e43ff583123301ee2432f582e43ff5830f
:102a9000e4f0a3f07b08805ae8240108500109ee15
:102aa000245c1235ef687003a3e06970527521054c
:102ab0007522007821122517ee2457fce43ffdee25
:102ac0002424fae43ffb121d3e740212224deefa5a
:102ad000effb1216f0e40592f08024eefaeffb1201
:102ae00012f4e40592f00592900495e0a2e0500ff4
:102af0007b07852382852483e0fa7900123b957950
:102b00000002303e122c6d7403782122a3a3e0282a
:102b1000f0a3e039f02274f812233e74fe1222680a
:102b2000122503900464e0f584a3e0f5851228b231
:102b3000e9704e1227c8e97048e584242ef582e436
:102b40003585f583e02401f0a3e03400f0906008bf
:102b5000e0c0e0e5842436f582e43585f583d0e0f5
:102b6000f0e584122bc83585122b950592a3a3e0be
:102b700028f0a3e039f0059290046412392f12383e
:102b80005e85328285338312250b740212224d80ba
:102b900032f582e43ff583122b9b22e0f8a3e0f9a3
:102ba000e828f8e933f922ee122bc83ff583122ffb
:102bb0001524fcf8e934fff98e828f83a3a3a3a325
:102bc000122f3b7f010223f3241ef582e42274f7c7
:102bd00012233e74fe1222681225038a828b83a37d
:102be000a3ac82ad839004b4ea241ef584e43bf5e3
:102bf000850592e0f8a3e0f9e828f8e933f99004b4
:102c000097e0f521a3e01232e50592e028f8a3e071
:102c100039f98c828d83122f3b9004af122c608c7b
:102c2000828d83122c579004b1122c607a207b4e37
:102c30001221ac882189228c828d83e09521f0a31a
:102c4000e09522f09004b6122c60e828f8e933f9f8
:102c5000e8122ef6022697c3e098f0a3e099f0223e
:102c6000123858900497122c6d1232eb22e0f521a5
:102c7000a3e0f5222274f312233e74fe122268129e
:102c80002503122f09f523e43ff524852382f583dc
:102c9000e0640c7011906008e054036009852382a1
:102ca000852483740df0ee2412f584e43ff5850548
:102cb00092e0a2e35008c2e3f00592022eda8e827f
:102cc0008f830592a3a3858221858322906062e091
:102cd000601079101219d8852182852283eaf0a329
:102ce000ebf01228b2e96003022ee31227c8e96074
:102cf00003022ee3906008e0c0e0ee2436f582e4a3
:102d00003ff583d0e0f09061d5e0f89061d7e068be
:102d100005926005e0d2e28003e0c2e2f005929005
:102d200004b112392f906062e06016ea24c0faeb19
:102d30003437fb123b6a9004b6122f15122ef68020
:102d400012123b549004b6122b97906064e028f066
:102d5000a3e039122f2f24fff0a3e034fff0ee247c
:102d60002b1235ef9004b3f0ee2420123929ee2413
:102d70002ef525e43ff526ee245cf584e43ff58549
:102d8000ea4b7003022e18900499e0f8852382859f
:102d90002483e0fc701e122f1a707dee2439122f4e
:102da0001d7075e8a2e04070ea2401f8e43bf99058
:102db0000497804a740d6c705f122f1a705aee24bb
:102dc00039122f1d7052e8a2e0404d85848285851e
:102dd000838525848526850592e0f8a3e0f9059290
:102de000e0c398f8a3e099f9ea24010a50010bc363
:102df00098eb999004975006eaf0a3eb8004e8f072
:102e0000a3e9122f2ff8a3e0f99004b4122f3beea0
:102e1000faeffb122bce805a9004977401f0a3e4d2
:102e2000f0ee241e122b91852182852283122b0e17
:102e30009004af123854852182852283122c578545
:102e40002382852483e0640c70288525828526836f
:102e5000e02402f8a3e03400f90592e0faa3e0fbd5
:102e6000c3e89ae99b400b8523828524837402057d
:102e700092f08e828f835392fea3a3a3a3a3a38574
:102e800082848583859060641238547a717b021243
:102e900021ac8922e82405f8e43522f9858482856d
:102ea0008583122f3b8e828f83a3a3a3a312392f76
:102eb000858482858583e0f8c3ea98eb99a2d26580
:102ec000d0335007ea0592f0a3ebf05392fe12388c
:102ed00051852582852683122b0e90046412392f8a
:102ee00012385e85328285338312250b74021222da
:102ef0004d7f060223f3122efee8f0a3e92224ea16
:102f0000f8e93402f990606422900464e0fea3e0e2
:102f1000ffee240a22122b9be822ee2432f582e4f3
:102f20003ff583122f29ec4d22e0fca3e0fd22f0b7
:102f3000852182852283e0229003efe8f0a3e9f067
:102f40002274f512233e74fe12226812250380318a
:102f5000c2e5123027c0e09004bee012300cd0e091
:102f6000f09004bee004f0a3e004f0a3e004f090cd
:102f700004c2e0700c7401f07b007a007900123b0f
:102f80009590605ae0f521906002e0a2e05004784c
:102f900000800590605de0f89004bfe0fae521282c
:102fa000f8e43400f9e86a7001e960589004bee082
:102fb000f52374012523547ff521e52312300ce01d
:102fc000f808089004bee028f074802521f582e41a
:102fd0003460f5830592900464e0f8a3e0c8240807
:102fe000f584e438f585e0a2e70592e04003022f7e
:102ff00050d2e5f012301e24db123027fa12301eb8
:103000004a022f60853282853383803b1230102242
:10301000547ff8748028f582e43460f583229004ac
:10302000bee0123010e022f012302c22900464e056
:10303000f8a3e0c82408f582e438f583e02285325d
:10304000828533835392fe12250b740212224d7f28
:10305000040223f374f512233e74fe122268122533
:103060000389210592900464e0f582a3e0f583854d
:103070008284858385a3a3a3a3a3a3a3a3e0a2e73c
:1030800040469004c1e0f8906054e0c398f5229067
:1030900004c1e02522f0ae82af838011ee2439fa1c
:1030a000e43ffb121618ea4b600312181c8522231a
:1030b00074ff2523f5220470e3e521a2e640097997
:1030c00000eefaeffb12178002303ec0e074f112fe
:1030d00024398535c675a70075a10079501219f6f7
:1030e0007f010224a0c0d075d01875bf00d0d032a7
:1030f000c0e0c0d075d018c092c082c083c0f08537
:1031000035c6e591fe759b00f4f5915392fe9060f3
:1031100002e0a2e050047800800278087900e844d8
:10312000015e6003122f41eea2e55004f912305403
:10313000eea2e75029e5a8f8c2af9004d8e0d2e0ab
:10314000f0753400e8a2e7e433f9e8a2e792afe5ce
:1031500094a2e24009759403e594a2e250faeea22b
:10316000e64003023230906061e0f99004bfe4f081
:103170009004c1f090046412392f8a828b83a3a338
:10318000a3a3a3a3a3a3e02410601224fc6009243a
:10319000fc700f1226ab806612274f806112163c1e
:1031a000805c900494e0600514601480239060605b
:1031b000e06480601be0c0e012324dd0e0801090ef
:1031c0006058e0f890605ce028f812324de028f09a
:1031d000906060e064806016e0c0e0900464e0f815
:1031e000a3e0c82413f582e438f583d0e0f090041e
:1031f00095e0a2e05005122c758003122b1690600a
:1032000059e0f89004a7e028f0906058e0f89004a6
:10321000a8e028f090605a12324490605e12324466
:1032200090605ce0f89004aae028f012162a80046e
:10323000a2e75003123935d0f0d083d082d092d09b
:10324000d0d0e032e0f89004a9e028f022ea242c63
:10325000f582e43bf583e0fa746f2af582e43404e6
:10326000f5832274f712233eea242af582e43bf523
:1032700083e025e0f8e433f974ff28f58274073918
:10328000f583e02432f8a3e03400f9ea122bc83bbe
:10329000f583e0f521a3e01232e5e8241ff8e934d4
:1032a00003f97a207b031221ac88218922ac21ad5d
:1032b000227a717b021221ac8a218b22740578213b
:1032c0001222249004b1123301ecf8edf97a717beb
:1032d000021221ac9004af122f3b9004b6ecf0a385
:1032e000edf00226a6f5221232eb22e88521f0a4a9
:1032f000c8aaf08522f0a42afa8521f0e9a42af9c7
:1033000022e521f0a3e522f02274f712233e74fe99
:10331000122268122503900464122f29123851ecee
:103320002429f582e43df583ec242bfae43dfb8a65
:10333000848b85740168497012e0f80592e028fae0
:10334000c39425402974db2afa8023e0f521e8851f
:1033500021f0a4f8aaf08521f0e9a42af90592e069
:10336000fae82af8e439f97a257b001221aceaf070
:10337000ea131313541ff8ec28f8e43df9e8242469
:10338000f582e439f5830592e0c0e074075af8d07d
:10339000e0b800028004c313d8fca2e040288005f6
:1033a000e8cac39afaec24e5f582e43df583e0f837
:1033b000eac39850ebec2af8e43df9e824c0f58222
:1033c000e439f583e0faec242cf582e43df583ea58
:1033d00002269774f612233e74fe12226812250309
:1033e00090041be09060026004740e8002740ff081
:1033f000900415e0906001f090080f1220ba9061df
:10340000951220c612178c90041ae0f521740165fc
:10341000219004137040e05402f97a1c7b041216c8
:103420005a900413e0a2e050097aa17b0475214070
:1034300080077a9b7b04752100a2e150047e808086
:10344000027e00752306782312251b7c1c7d04e573
:10345000214e44018068e0a2e050087aa17b047804
:103460004080067a9b7b04780005929004411225e7
:10347000327c227d0474132521f582e43408f5831f
:103480000592e048f9121660740112224d90041a58
:10349000e0f86005740268702e900413e0a2e0501a
:1034a000087aa17b04784080067a9b7b047800052b
:1034b000929004611225327c427d04e84404f912a2
:1034c0001660740112224d900413e0a2e0e433f977
:1034d00012165475910090041be090618260047490
:1034e000c8800274c0f085328285338312250b7444
:1034f0000212224d7f030223f3c082c0835392fe47
:10350000906002740ff09003f8e004f0640370021e
:10351000e4f0e02425906000f090080f1220ba90ab
:1035200061951220c69003f6e05420f91216541249
:10353000178c9003f6e0a2e15004d2f08002c2f0b2
:10354000a2f0e43390600cf09003f6e0a2e1503575
:1035500075d90da2e55004784080027800e8440354
:10356000f5d9e0a2e550067aa17b0480047a9b7b22
:10357000047906121630740675d9001470fae5e164
:1035800070fc75e19575910090618274c1022610fe
:1035900074f812233e74fe1222681225031236308c
:1035a00012178c1236261220ba9061951220c6127c
:1035b000365e123309123657f584e43ff58585846b
:1035c0008285858312363f121780ee24121235ef62
:1035d000a2e250180592e0f8a3e0f58388820592f4
:1035e000a3a3e02402f89061d5e028f0022b81f536
:1035f00082e43ff583e02274f812233e1236301243
:10360000178c1236261220ba9061951220c61236f7
:103610005e123309123657f582e43ff58312363fc6
:10362000121780022ba7ee2414f582e43ff58322c3
:10363000900464e0fea3e0ff906002740ff0221299
:103640003858ee2437f582e43ff583e8f0a3e9f03b
:103650007900eefaeffb221236a7ee243922ee248f
:10366000361235ef906008f0ee24181235ef9060b6
:1036700005f0ee24191235ef906006f0ee241a12d0
:1036800035ef906007f02274f812233e12363012a4
:10369000178c1236261220ba9061951220c6123667
:1036a0005e1236a7022ba7ee242cf582e43ff583a9
:1036b000e0906000f07591009004cce0906182f0a1
:1036c0002274f112233e74fe122268122503752122
:1036d000007522007c6b7d04801b888289831238f0
:1036e0004b8c828d83eef0a3eff0888289831233b6
:1036f00001882189228c828d8312384bee4f7039dc
:103700008c828d83eaf0a3ebf08a828b83e4f0a3b2
:10371000f0aa21ab2285328285338312250b7402f5
:1037200012224d7f080223f3e5232527f8e52435ef
:1037300028f98a828b83122b0ceef8eff9888289a4
:1037400083a3a38a848b850592a3a3e0f523a3e03a
:10375000f5240592e0c39523f523a3e09524f524f1
:103760008a828b83a3a3a3a3a3a3e0f525a3e0f5fb
:1037700026c3e5239525e5249526a2d265d03340be
:103780003e8a828b83122f3b8a828b83a3a3a3a3bf
:10379000858284858385123854c3e52398e524996e
:1037a000a2d265d033500d858482858583e523f0d0
:1037b000a3e524f08c828d83eaf0a3eb0237108816
:1037c000828983a3a3a3a3a3a3e0f527a3e0f528fd
:1037d000c3e49527f525e49528f526c3e52595232b
:1037e000e5269524a2d265d03350288a828b83a304
:1037f000a3a3a3a3a3a3a3e0a2e7500302372888af
:10380000828983a3a3a3a3a3a3a3a3e0a2e7500356
:103810000236da88828983a3a3a3a3858284858361
:1038200085c3e49523fce49524fd12384bc3ec9e3c
:10383000ed9fa2d265d033500b858482858583ecc1
:10384000f0a3edf0e8fce9fd0236f5e0fea3e0ffb1
:103850002290049712385822e0f8a3e0f92274f776
:1038600012233e74fe122268122503ea4b6031a235
:10387000afe433fec2af1236c18a828b838016aab0
:1038800082ab838582848583850592e0f582a3e0ff
:10389000f5831236c1e582458370e4eea2e092af73
:1038a00002269874f812233e74fe12226812250331
:1038b000eaf8ebf9e849606ca2afe433f521c2af56
:1038c00090046b12392fea4b705490046412384bf9
:1038d000eefaeffb8a828b83a3a388848985059205
:1038e000a3a3e0fca3e0fd0592e09cfca3e09dfd0a
:1038f000c3ec9405ed123abe4024eefceffdec243f
:1039000012f582e43df583e0d2e4f088828983ea0f
:10391000f0a3ebf090046b122f3b79018008e521b6
:10392000a2e092af7900022b81f582e43ff583e0bb
:10393000faa3e0fb2274f512233e74fe12226812f1
:10394000250379001219d88a238b2479771219f666
:103950009061b1e4f0e070f87403f0e0640370f893
:1039600090046b123854900464122f3be849701293
:10397000123ac6e594a2e24003023ab675940002f8
:103980003ab68882898312392f90046beaf0a3eb50
:10399000f088828983a3a3122c6d88828983a3a3d4
:1039a000a3a3e02521f8a3e03522f9e824fdfee9f0
:1039b00034ffff9060607480f0e521c39523e52219
:1039c0009524fb900464e0f584a3e0f585e52324c9
:1039d00001f8e43524f9858482858583a3a3a3a314
:1039e000a3a3a3a3e02410602f24fc600624fc60a2
:1039f0000780451233d38069123abc50168821895a
:103a000022c3e89ee99f4008e82401fee43522ff36
:103a1000122f381234f98049123abc501688218985
:103a200022c3e89ee99f4008e82401fee43522ff16
:103a3000122f381217928029900495e0a2e05005c9
:103a4000123590801ca985e5842412f582e439f5ad
:103a500083e0a2e45008c2e4f012368780031235f6
:103a6000f7aa21ab2279301219eaeefaeffb79407e
:103a70001219ea79541219f6e521c39523f8e522c3
:103a80009524f9c3e89401e9123abe500c1217a428
:103a9000e5e170fc75e121801d900367e0a2e04044
:103aa00012aa21ab221219e49004ab122096123a0a
:103ab000c680031217a41218ac023004c3eb9400a2
:103ac000a2d265d03322e5a8f8c2af9004d8e0c2f4
:103ad000e0f0753400e8a2e7a2e792af2200000010
:103ae000853487c2af22c0e0c0d075d018c092c064
:103af00082c083c0f074fc1222375392fe9004d926
:103b0000e0601c12164e900367e054117008e5c681
:103b100054384487f5c69004d9e4f0c2c78020c267
:103b2000c7aa32ab3312179ee9640170129004d910
:103b30007401f085328285338312208a1218a075b1
:103b40003400740412224dd0f0d083d082d092d0b1
:103b5000d0d0e03275c3007420c39afa744e9bfb38
:103b6000eaf5a2ebf5a35392fe22c02175c301e54d
:103b7000a2f521e5a375c300f9e5212420f8e93475
:103b80004ef9e8c39af8e99bf9e8f5a2e9f5a3d064
:103b9000215392fe2274f512233ee9feeaff8b21a7
:103ba000753400a2afe433f522c2af90057ae0f598
:103bb0002474012524540ff523900579e0652370c2
:103bc000057900121a50e52475f003a4f8a9f074e1
:103bd0000728f8740539f9e82442f582e439f583b9
:103be000eef0e82443f582e439f583eff0e824446d
:103bf000f582e439f583e521f0e52390057af0e5d7
:103c000022a2e092af7f040223f3c082c08374fc3f
:103c1000122237e5a8f8c2afe59585328285338355
:103c20005392fef0e596c0e074011222a1d0e0f0bc
:103c3000e597c0e074021222a1d0e0f0e8a2e7a26a
:103c4000e792af74031222a1e4f0853282853383b8
:103c500012208a740412224dd083d08222c0e0c088
:103c6000d075d018c092c082c083c0f0121bca1297
:103c70003c0a90060e122096e58955ab900612f08c
:103c8000e580900615f0900612e0f4f5899062d078
:103c9000e0f8a2e15027900612e0a2e5501f53abd6
:103ca000df9062d0e0a2e0e433900618f0900612b4
:103cb000e0c2e5f07b307a007906123b959006125f
:103cc000e0600e7b007a007906123b957900121baa
:103cd000d6c2c5d0f0d083d082d092d0d0d0e0323e
:103ce000c0e0c0d075d008c092c082c083c0f012be
:103cf0001bca123c0a90060e122096e58a558df8d2
:103d0000900613f0e590900616f0e8f4f58a7b0132
:103d10007a007906123b957901121bd6c2eb80b36b
:103d2000c0e074f01224399061a9e06017c2afe5d9
:103d300089f8e5abf975ab00e4f090624bf0888947
:103d400089abd2af90061de0640f7012e5c7f89002
:103d50000368e0f5c790ff1ce0f4f5ae88c7e5bb4b
:103d6000f8e5baf521e8fb90061de025e0f8e4331c
:103d7000f9741e28f582740639f583e521f0a3eb6a
:103d8000f090061de02410fb7a007906123b95e5c1
:103d9000a8f8c2af9004d8e0c2e2f0753400e8a2ff
:103da000e7a2e792af7f020224a0c0e0c0d075d0a6
:103db00018c092c0f0e5d1f875d100c2c0a2e3509e
:103dc000097b037a007904123b95d0f0023cd9c0fc
:103dd000e0c0d075d010c092c021c022c082c08384
:103de000c0f05392fe900716123eea602a9006d168
:103df000e0700c7401f07b007a007904123b95eec0
:103e0000900716f0e5c1c0e074182521f582e4346e
:103e100007f583d0e0800be5c4a2e650069006d0fb
:103e20007401f0023ed9c0e0c0d075d010c092c07d
:103e300021c022c082c083c0f0c2e95392fe900626
:103e4000d3e0fa9006d2e09a543ff8602974d42a5d
:103e5000f582e43406f583e0f974012a543f9006b4
:103e6000d3f089c1900714e06870197b027a007959
:103e700004123b95800ee5a8f8c2af9004d8e0c2ca
:103e8000e3123f588053c0e0c0d075d010c092c03c
:103e900021c022c082c083c0f05392fe9007a012be
:103ea0003eea602990075be0700b7401f07b00fa3a
:103eb0007904123b95ee9007a0f0e5f9c0e074a2fa
:103ec0002521f582e43407f583d0e0800be5fba2e1
:103ed000e6500690075a7401f0d0f0d083d082d01b
:103ee00022d021d092d0d0d0e032e0f5217401254b
:103ef00021543ffea3e06e22c0e0c0d075d010c0b8
:103f000092c021c022c082c083c0f0c2ea5392fe98
:103f100090075de0fa90075ce09a543ff8602974de
:103f20005e2af582e43407f583e0f974012a543ff0
:103f300090075df089f990079ee06870197b027a1e
:103f4000017904123b95800ee5a8f8c2af9004d821
:103f5000e0c2e4123f588081f0753400e8a2e7e443
:103f600033f9e8a2e792af22030603020203030239
:103f70000602030301050202010001010101000024
:103f80000302000005000207070002030101010807
:103f900006060503040401030602020202010f00e3
:103fa00008030505020704010109010102010102dc
:103fb00001000000030202010505020101030500e2
:103fc00001000301000000020104040203020401d5
:103fd00004010074f01222cf74f0122237e5c7f505
:103fe00028900368e0f5c77521107522007821122a
:103ff00025177cdd7d0374021222bd121d3e740262
:1040000012224d78211225177c007d007add7b037a
:10401000121d44740212224d752100805a8521829e
:10402000a882e875f06fa4faabf090036512416cba
:10403000246ef582e43bf583e0a2e050387f008fe8
:1040400082ac82e875f037a4faabf09003d312414a
:104050006c2cfae43bfbea241af582e43bf583e09e
:10406000fa74dd2cf582e43403f583e04af00fefb7
:10407000c3941040ca0521900364e0f8e521c39879
:10408000409b752100852182a88274dd1269373436
:1040900003f583e0fa853282853383e5821269373e
:1040a0003583f583e06af00521e521c3941040d5fe
:1040b000752100852182ae827f0012415ba3a3a3fc
:1040c000a3a3a3a3a3e0f812415be048f522607725
:1040d0008f27e522a2e0505c7523018f24e5277825
:1040e00023122224a82374dd2ef582e43403f58301
:1040f000e058600479018002790074e52ef582e4cd
:104100003403f583e0586004e9d2e1f98e238f246b
:1041100074037823122224852725e5232525fae434
:104120003524fb74a02af58274f73bf583e0fa7b13
:1041300000121bc40527e522c313f522e527c3940b
:10414000085004e522708b0521e521c39408500333
:104150000240b38528c77410024625853282853314
:1041600083e5822ef582e43583f5832212417022a5
:10417000e02afaa3e03bfbea2274f61222cfe975ab
:10418000f037a4faabf012130c9003d3126964e574
:10419000c7ff900368e0f5c790f79e125e39e4c34d
:1041a0009af521741f9bf52278211225177c007d3a
:1041b00000121d44740212224d8fc779087cd57df0
:1041c000037a007b0012187ce96408601b752108e3
:1041d00075220078211225177c007d007ad57b039b
:1041e000121d44740212224d800e85328285338363
:1041f00012250b740212224d7f020223a774f012c3
:1042000022cf74fe1222681225038a278b2812659a
:10421000180592a3858221858322125e39ea4b60bc
:10422000158e828f83a3a3a3858223858324c3e075
:104230009aa3e09b500879011214c802432c0592fe
:104240009007eb12252a7b070592126510121a08b7
:10425000740412224d8e828f83a3a3a3a3a385820d
:10426000258583268e828f83e014604a146064144f
:10427000602c14600d14700302431224fe607d0252
:10428000432c852384852485059212252e85218241
:104290008522830592124349121360024325782533
:1042a000122517852384852485059212252e124315
:1042b00036121354801678251225178523848524f9
:1042c00085059212252e12433612132a74041222e7
:1042d0004d80607825122517ee2417f584e43ff50c
:1042e00085059212252e85238485248512252e127c
:1042f0004336121318740612224d8037ee2417f538
:1043000082e43ff583e0f523a3e0f524e52345248b
:10431000700812434312135a80197823122517127a
:104320004343121330740212224d8007aa27ab2890
:1043300012181c0269eeee2415f582e43ff58305a0
:1043400092e0f9852182852283125e2faa27ab286d
:104350002274f61222cf74fe122268122503eafe9e
:10436000ebff892112650e1219fc1249c4242a128e
:1043700054d8e060220592e024fd600c24fc701407
:10438000740765217011800c740a65216006740140
:1043900065217003752100e4439201f00592f090cd
:1043a0000363e0f522ac21eefaeffbe0f9121b8e7d
:1043b000900363e065226005a9221213f00241ea2e
:1043c00074f61222cfe9ff8c218d22900363e0fe68
:1043d0007821122517740c1222a1e0fdeffc900346
:1043e00063e0f9121b40740212224d900363e06ee9
:1043f0006005eef91213f00241f874f21222cf7444
:10440000fe1222681225038a258b2612449b12195c
:10441000fc900363e0ff858482858583a3858223e6
:104420008583247821122517eefd7c04852382855f
:10443000248312460b121b40740212224d90036318
:10444000e06f6005eff91213f0e5842417f8e43506
:1044500085f988828983e02ef0a3e03400f0741699
:104460006e701788828983c3e09416a3e09400409d
:1044700009aa25ab261214c28019790085238285ea
:104480002483125e391214c8e40592f0aa25ab26e3
:1044900012181c853282853383801c8c218d22e981
:1044a000fe125adb7b07900363e0fa790122853222
:1044b000828533835392fe12250b740212224d7fa4
:1044c000060223a774f41222cf74fe12226812256a
:1044d000038a238b2412449b1219fc0592e0f87482
:1044e0000768700feef9ac21ad22aa23ab24121499
:1044f000d4803f740a68701012453beefcaa21abd1
:1045000022e0f9121b46801712453b78211225172d
:10451000eefd7c00124731121b40740212224d90b6
:104520000363e06f6005eff91213f0aa23ab2412c6
:10453000181c8532828533830262c4e4f0059290b0
:104540000363e0ff2274f01222cf74fe122268127d
:10455000250374fe1222378a278b288a828b83a335
:10456000a3a3a3a3a3a3a3a3858225858326126562
:104570000e1219fc852782852883a3a3e024faf56f
:10458000231249418525848526850592a38532829b
:10459000853383059212491b7e00804e900363e0b1
:1045a000ffe5842402f521e43585f52278211225e2
:1045b0001774fe29fd7c0385848285858312460b52
:1045c000121b40740212224d900363e06f6005efee
:1045d000f91213f0852582852683e0f5212efee56c
:1045e000842521f584e43585f58585258285268316
:1045f000e0f9eec3952340a48921e523c395211258
:10460000490c1249501214c20269e91278ed900364
:1046100063e0f92212224d8532828533835392fe64
:1046200012250b740212224d7f080223a774f01288
:1046300022cf74fe12226812250374fe1222378ada
:10464000238b24ea2409f8e435241265021219fcac
:10465000852382852483a3a3e024faf522125ad766
:10466000858427858528e527242af582e43528f5e1
:10467000837401f0126996640170047e0280027ee8
:10468000107521008010e06f6005eff91213f074cf
:10469000022e2521f521e521c3952250535392fe88
:1046a000900363e0ffa8218532828533831264285a
:1046b0003400f585eef525782512251be5842403c5
:1046c000fce43585fd124731121b58740112224d4e
:1046d000e990036370b0e06f6005eff91213f085a5
:1046e0002782852883e4f0aa23ab2412181c803e7d
:1046f000852221e52124fef8e434fff98e21e8c368
:104700009521f8e99400f98532828533835392fe2e
:104710001263732401f8a3e03400f9852782852809
:10472000830592a3126007aa23ab241214c2026964
:10473000e912473c0592900363e0f9220592a3e059
:10474000faa3e0fb2274f01222cf74fe1222681248
:10475000250374fe1222378a278b28ea2409f8e4fd
:1047600035281265021219fc852782852883a3a3a8
:10477000e024fbf52112547e05929003d312595682
:10478000858225858326e525242af582e43526f5cc
:104790008374010592f07f00800de06e6005eef9f4
:1047a0001213f074042fffefc39521505beff885cf
:1047b0003284853385125ff08582848583850592f6
:1047c000900363e0fe752202782212251be5252462
:1047d00017f523e43526f524782312251712492ae4
:1047e000121b52740312224de990036370ace06e09
:1047f0006005eef91213f0852582852683e4f0aa80
:1048000027ab2812181c802ca8218532828533837f
:1048100012636d3400f9e824fef582e934fff58374
:10482000124967852582852683a3126007aa27abd4
:10483000281214c20269e974f01222cf74fe122207
:104840006812250374fe1222378a278b288a828bee
:1048500083a3a3a3a3a3a3a3a3a3858225858326c0
:104860008a828b83a3a3e024faf52112650e121924
:10487000fc12494185328285338312491b7f0080b7
:1048800012e06e6005eef91213f08525828526830d
:10489000e02fff852582852683e0f8efc395215020
:1048a00056e5252ffae43526fb8a828b83a3858281
:1048b00084858385900363e0fe74fc28f5227822ca
:1048c00012251bea2405f523e43bf5247823122561
:1048d0001712492a121b52740312224de9900363e6
:1048e000709fe06e6005eef91213f0126f84aa2734
:1048f000ab2812181c80128823e521c39523124986
:104900000ca3a31249501214c20269e9f895e0f908
:10491000e52528f582e52639f58322127846242af2
:10492000f582e438f5837401f022858482858583dd
:10493000a3a3125962faa3e0fb0592900363e0f986
:1049400022125d02853282853383e8f0a3e9f022ea
:10495000a3124967853282853383126f7ae8f0a308
:10496000e9f0aa27ab2822e02401f8a3e03400f9fb
:104970002274f61222cf74fe12226812250312133b
:10498000f0e970047a86801f1249c42416f5845019
:104990000205850592e0a2e040047a8180091218a0
:1049a00016ea4b70067a827b01800d0592e0c2e028
:1049b000f012136c7a007b00853282853383539228
:1049c000fe0241f0125adbe5842274f21222cf7407
:1049d000fe122268122503eafeebff8c258d2612bb
:1049e00013f0e970047a868012124d2860047a81ef
:1049f0008009121816ea4b70067a827b01803074a7
:104a0000101222a1e0f8c394145004882280037588
:104a100022148525238526247823122517a922ee22
:104a2000fceffd12134e740212224d7a007b00023d
:104a300044ae74f01222cf74fe1222681225038a4b
:104a4000278b28ecff1213f0e970047a8680251278
:104a50004d2860047a81801cefa2e04005c39404d5
:104a600050047a80800e1218168a258b26ea452675
:104a700070067a827b018034efc394165004effef7
:104a800080027e16740a124bb612252a7b07059205
:104a9000126510121a08740412224deef9ac27adfb
:104aa00028aa25ab261213427a007b00024617740f
:104ab000f01222cf74fe1222681225038a258b265b
:104ac000ecfeedff74141222a1e0f521c394135003
:104ad000191213f0e970047a868021124d286004bf
:104ae0007a818018e525452670047a80800e121898
:104af000168a278b28ea452870067a827b01804d2a
:104b000074080592f0a3e525f0a3e526f09007ebe5
:104b100012252a7b070592126510121a08740412d6
:104b2000224d74121222ab059212252e8e238f2451
:104b300005927823122517a921ac25ad26aa27ab0b
:104b400028121336740412224d7a007b0002461795
:104b500074f41222cf74fe1222681225038a2212e4
:104b600013f0e970047a86801a124d2860047a8165
:104b700080111218168a238b24ae23af24ee4f70b7
:104b8000067a827b01802c7409124bb612252a7b8f
:104b9000070592126510121a08740412224de522bc
:104ba0006004790180027900eefaeffb12133c7a7f
:104bb000007b000262bb0592f0a3e4f0a3f0900733
:104bc000eb2274f01222cf74fe122268122503ea3f
:104bd000feebff8c278d281213f0e970047a868093
:104be0001f124d2860047a818016ee4f70047a807f
:104bf000800e1218168a258b26ea452670067a82c0
:104c00007b01805474121222a1e0f8c39414500462
:104c10008821800375211474060592f0a3eef0a399
:104c2000eff09007eb12252a7b0705921265101210
:104c30001a08740412224d8527238528247823120c
:104c40002517a921eefceffdaa25ab261213487407
:104c50000212224d7a007b0002461774f41222cf12
:104c600074fe122268122503eafeebff1213f0e92c
:104c700070047a86801a124d2860047a818011eec1
:104c80004f70047a808009121816ea4b70067a82f7
:104c90007b01802a7407124d23eef0a3eff0858488
:104ca00082858583a3a3a3eef0a3eff0e584241708
:104cb0001254d8e4f0a3f01214c27a007b0002620e
:104cc000bb74f41222cf74fe122268122503eafe8e
:104cd000ebff1213f0e970047a86801a124d2860f7
:104ce000047a818011ee4f70047a808009121816c0
:104cf000ea4b70067a827b0180267405124d23a34d
:104d0000a3a882a983eef0a3eff0888289831257cb
:104d1000a00592a3e8f0a3e9f01214c27a007b0088
:104d20000262bb124e8ca322125adb0592e022745f
:104d3000f21222cf74fe1222681225038a218b22de
:104d4000ecfeedff1213f0e970047a868012124d2a
:104d50002860047a818009121816ea4b70067a825c
:104d60007b01801d7404124d23e521f0a3e522f0a0
:104d70000592a3a3a3eef0a3eff01214c27a007b76
:104d8000000244ae74f01222cf74fe122268122583
:104d9000038a278b288c258d261213f0e970047a5c
:104da00086802e124d2860047a8180257414122288
:104db000a10592e0ff74026f600974106f60047abd
:104dc00080800e1218168a238b24ea452470067af6
:104dd000827b01803474030592f08f2175220005d7
:104de00092782112251774141222a1124eb5121da9
:104df0003e740212224d124e98858482858583125c
:104e00004ea61214c27a007b0002461774f01222da
:104e1000cf74fe1222681225038a278b288c258dd9
:104e2000261213f0e970047a86802e124d28600451
:104e30007a81802574141222a10592e0ff74026f1a
:104e4000600974106f60047a80800e1218168a232d
:104e50008b24ea452470067a827b01802c8f217591
:104e60002200782112251774141222a1124eb512b5
:104e70001d3e740212224d124e987401124e8c1275
:104e80004ea61214c27a007b000246170592f085e6
:104e90008482858583059222e5842415f582e43594
:104ea00085f583eff022124f6ae525f0a3e526f0a1
:104eb000aa23ab2422125e2fe5842405fae435856b
:104ec000fb2274f01222cf74fe1222681225038a8c
:104ed000278b288c218d221213f0e970047a8680aa
:104ee00029124d2860047a81802074161222a105af
:104ef00092e0ffc3941140047a80800e1218168a43
:104f0000258b26ea452670067a827b018059741229
:104f10001222a11257a0e5842417f582e4358512e8
:104f2000600574020592f0e58424151254d8ef054b
:104f300092f08f23752400782312251774161222fd
:104f4000a1124eb5121d3e740212224d8584828537
:104f50008583124f6ae521f0a3e522f0aa25ab264e
:104f60001214c27a007b00024617a3e527f0a3e5de
:104f700028f00592a3a3a32274f11222cf74fe128b
:104f8000226812250374fc12223774021222a11225
:104f90006964e5c7f527900368e0f5c7740212223b
:104fa000a112784f853284853385e5820592f0a37e
:104fb000e583f0853282853383059212699cfa7409
:104fc000021222a10592e02a12510e059290f79d3d
:104fd000e0f525ff741dc39af5268e228e218008e8
:104fe0000522efc313ff052190f79ce0fce521c3e8
:104ff0009c5043eec39526503d12511f70e8efa21e
:10500000e050dfa3a3a3a3a3e0640270d37523023f
:105010007524007823122517125e24e5842ef8e407
:105020003585f9e82402fae439fb121d3e740212b8
:10503000224d0e0e80acee6013858482858583a39d
:10504000ef60047402800274031250f7e5227003cb
:105050000250ef8532828533835392fe12699cf8a9
:10506000741dc398fa95e0fbc3ea9410eb9400a278
:10507000d265d033407974021222a10592e0281241
:10508000510eaf258e218006efc313ff0521e521c8
:10509000c39c5041e526603d5392fe12511f70ecb7
:1050a000efa2e050e3a3a3a3a3a3e0641070d9751b
:1050b00023108e247823122517125e24e5842402ff
:1050c000fae43585fb121d3e740212224d7e1074e7
:1050d000ff2522600e8584828585835392fea3740a
:1050e000068009858482858583a374071250f7851d
:1050f00027c7740402708ff074012ef80592f0082f
:1051000085328285338305921269a028f022f584c6
:10511000a3e03400f5850592a3a3a3a37e0022900b
:10512000f796127899e52175f006a4faabf0e82a13
:10513000fae93bfb8a828b83e02274f01222cf745f
:10514000fe12226812250374f912223785328285f5
:105150003383ecf0a3edf08a278b28e9fe7522005b
:10516000126f848a828b830592a3a3a3a3858223d3
:1051700085832474026e600caa23ab24121a38e9ca
:1051800060027e0274191222a11264097410059241
:10519000f074026e600302521e852382852483050b
:1051a000921257a0e8700374286970567f00741932
:1051b0001222a1126409740a0592f0e5c7c0e074d6
:1051c000041222a1d0e00592f0900368e0f5c71226
:1051d0006f84059290f79ce0f526f582ac828527d6
:1051e0008285288312708650030253568527828554
:1051f0002883a3a3125e39c3ec9ae49b50258c2527
:105200008024740168700374286970047f01809e93
:10521000740368700374286970047f0280907900b9
:10522000025363eaf525e814f52180127402122274
:10523000a112784ce521f0a3e4f015210521e52128
:10524000c39525400302534712579d74051222a1ae
:10525000126007852182a8827900e875f006a4fa19
:10526000abf074051222ab0592e02af582a3e03b75
:10527000f583ac82ad830592e06f70c0852282aa6f
:10528000828532848533850592e02a12594a740258
:105290001222abe5820592f0a3e583126f1ce02495
:1052a00004f527126996f5236009e5276523600355
:1052b000025347852723ea126f0a4003025347e54a
:1052c00027f0eaf522e824010850010974021222ad
:1052d000a1126407e80592f0a3e9126f1c125bd2d9
:1052e0001225178c828d83125e2874041222a1125b
:1052f0006f44121d3e740212224d8029e52175f083
:1053000006a4f8a9f074051222a15392fe12600db2
:10531000f8700302522c740168700302522ce86f7b
:10532000700302522c0521e521c3952640cee526c7
:105330006521600302522c74021222a112784c746f
:10534000fff0a3f002523ce522600b74191222a177
:105350005392fe126f8a74041222a15392fee0f55a
:10536000c7a922740702461474f71222cf74fe12e2
:1053700022681225031244a11219fc0592e0f87468
:105380000668600a7408686005740968701ce41295
:1053900054cf7c0012473c0592e0f9121b8e90031b
:1053a00063e06e6005eef91213f002657d74f2128f
:1053b00022cf74fe1222681225038a258b26ecff69
:1053c000edfeec24010ce43400fd12131e8a848be4
:1053d0008574101222a1125e2bec4d701deff91294
:1053e00015b2e9fec3941540027e147d00eefcef79
:1053f000f9aa84ab851215ca801aeec3941540022f
:105400007e148e217522007821122517121d3e74fc
:105410000212224deef9aa25ab2612132402449360
:1054200085328285338302658674f71222cf74fe3b
:105430001222681225038a848b8512546b60237ba9
:10544000081265101219fc12546bfae4f090036311
:10545000e0fef9121b4c900363e06e6005eef9125a
:1054600013f0aa84ab8512181c80b512547e9003e9
:10547000d3e028f8a3e039f9e81271ace022125425
:10548000822212548622900363e075f037a4f8a9b3
:10549000f02274f71222cf74fe1222681225031232
:1054a0004d28640b6026e58424191254d874010534
:1054b00092f0125ad7740b05921254cff9121b882e
:1054c000900363e06e6005eef91213f002657df063
:1054d0000592900363e0fe22f582e43585f5832290
:1054e00074f01222cf74fe12226812250374fd128a
:1054f000223774011222a1ecf0a3edf089258a2253
:105500008b277a817b01e52275f006a4f8a9f0903b
:10551000f796126d2cf5850592a3a3a3e0f582a35f
:10552000e0f583858284858385a3e0853284853395
:1055300085f00592e0f52875210074ff6525600768
:1055400085252180020521900364e0f8e521c398b8
:105550004003025672852182a882e875f06fa4fc90
:10556000adf09003651257aee584246e1254d8e076
:10557000a2e050d1e8900363f0900361e584f0a3ca
:10558000e585f0853282853383e0131313541ffec3
:10559000e05407f526e528a2e4503de8125677f8d6
:1055a000ed39f91262d1a826b800028004c313d8dd
:1055b000fca2e05023121816ea4b6061740112221b
:1055c000ab059212252ead27ac22791b1215527411
:1055d0000212224d7a007b00e528a2e54003025624
:1055e00069900363e0125677fced39fdec2422f557
:1055f00082e43df583e0ac26bc00028004c313dcea
:10560000fca2e0506412546e60047a81801112187a
:10561000168a238b24ae23af24ee4f70067a827b4a
:1056200001804f05929007eb12252a7b0805921204
:105630006510121a08740412224d74012522c0e06c
:105640001262dc1271acd0e0f074011222ab059250
:1056500012252ead27ac22791deefaeffb12155262
:10566000740212224d7a007b0074ff6525700302dc
:10567000554574030269eb75f037a4f8a9f090035f
:10568000d3e02efca3e03400fdec282274f01222bb
:10569000cf74fe12226812250389218c278d28756c
:1056a000220074121222a1e0fea3e0ff8e828f83fb
:1056b000e0f525e5c7f524125971f52690f79ce031
:1056c000f8e526c39840097522018e828f838023d6
:1056d000e526125e3d70098524c77a887b018049e2
:1056e000a9261215b2e98e828f83f0c39521500747
:1056f000752207e4f08022a821e0c398f0f8c39552
:1057000025500488238003852523e523f0ad21fc63
:10571000a926aa27ab281215ca8524c7e522600549
:10572000fa7b0480047a007b0002461774f612228a
:10573000cf74fe122268122503eaf8ecfaedfb752d
:105740002100e5c7fe900368e0f5c7e814fd740c7e
:105750001222a11257a090f79ce0fcedc39c400bd5
:1057600075210188828983e4f0801eed1257a4051b
:1057700092e0fca2e75004741080027402888289cf
:10578000830592f0ecf9121a448ec7e521a2e0508d
:1057900005fa7b0480047a007b000241ea90f796c8
:1057a0001278992275f006a4fcadf090f796e02ce3
:1057b000f584a3e03df5852274f61222cfe9ffead5
:1057c000f8ebf9e5c7fe900368e0f5c7740a12220a
:1057d000a1e0fbc3941540067a807b01801690f708
:1057e0009ce0c398e49950067a017b0480061aef86
:1057f000f91215648ec70241f874f01222cf74febc
:1058000012226812250374fe1222378532828533f4
:1058100083ecf0a3edf089257e0012596bf5229000
:10582000f79ce0c39522500302593be52275f00630
:10583000a4f8a9f0059290f796125956858227850b
:1058400083280592a3a3e0fc24fa600a14600724cd
:10585000fb600302593974141222a1e0f521740c83
:105860006c700302591f8527848528850592a3a3a0
:10587000a3e0f582a3e0f583852584aa848582844c
:10588000858385a3a3a3a3e0f8852123ea2523f537
:1058900023e43400f524e89523e49524c365d0334c
:1058a00050057e0d02593c0592a3a3858284858311
:1058b00085852182a882790074066c8823892478e2
:1058c00023701b12251774021222a112595dfaa32c
:1058d000e03400fb121d3e740212224d803112256d
:1058e0001774021222a112595d12594aaa82ab837f
:1058f000121d3e740212224de5212525c0e08527a8
:1059000082852883a3a3a31269abd0e00592f0851a
:1059100027828528835392fea3a3e0640c700b8535
:105920003282853383125e2b80047c007d00ab21a4
:10593000aa2279ff12156480050e0e0e7f048526bb
:10594000c7eefaeffb7402024614f582a3e03400be
:10595000f5830592a322125ffa39f5832212596268
:105960002a22e0fca3e0fd0592e0227f00e5c7f5d6
:1059700026900368e0f5c7ea142274f41222cf746b
:10598000fe1222681225038c848d85e9ffe5c7f598
:1059900021125971fe90f79ce0c39e50047901805a
:1059a00034740e1222a1e0f52260047a0280027a99
:1059b00080eef91215ace9701ce4f523f524782388
:1059c000122517ad22effcaa84ab85eef91215c49f
:1059d000740212224d8521c702453274f31222cf80
:1059e00074fe1222681225038a218b22125ad78a4a
:1059f000828b83a3a3a3a3a3a3a3a3a3e0700f12eb
:105a00005bdb121618ea4b607812181c80f1e5c7b0
:105a1000fe900368e0f5c7e584242bf523e4358583
:105a2000f5248523828524831264fc605288828950
:105a300083a3a3a3a3a3a3a3a3a3aa82ab83e0ffef
:105a40008a848b850592a3a312252e7d01888289e5
:105a5000830592a3a3e024f7fcea2404fa50010b87
:105a600074ff2ff91215c4740212224de9f525aa0c
:105a700023ab2412161812181ce525702080a38e63
:105a8000c7852182852283a3a31278217419f07916
:105a900000aa21ab22121324802a12181c125bdbed
:105aa000121618ea4b70f3e525f523782312251b0f
:105ab0008f23ac237d007918aa21ab2212137874ae
:105ac0000112224d85328285338312250b74021216
:105ad000224d7f050223a7125adb22125482900323
:105ae000d3125ae522e028f584a3e039f585227423
:105af000f41222cf74fe1222681225038a848b8549
:105b0000858482858583a3a3a3a3a3a3a3a3a3ae14
:105b100082af83e5c7f521900368e0f5c78e828fd9
:105b200083e014f990f79ce0c39950217401f521aa
:105b3000782112251b8e828f83125e2b7916aa8400
:105b4000ab85121378740112224d0245327a02128b
:105b500015ace970d91218168a238b24ae23af2412
:105b6000ee4f8521c7700c7a017b0090032e7408dc
:105b7000022149ac84ad85125bdb12161e8584823e
:105b8000858583a3a3858221858322125bd212257a
:105b900017e5842404fce43585fdee2404fae43f93
:105ba000fb121d3e740212224d852182852283e064
:105bb0008e828f83a3a3f08e828f83a3a3a3a3a33c
:105bc000a3a3a37417f07900eefaeffb12132402db
:105bd0005b4ae0f5237524007823221262e0242b2f
:105be000fae439fb2274f11222cf74fe12226812f9
:105bf000250374fb12223774031222a112696489ef
:105c000027ecfeed125cfd74011222a1126007e583
:105c1000c7f521900368e0f5c78e828f83a3a3e0c8
:105c2000f8ee1269373ff583a3a3a3a385822585e8
:105c30008326741bc398f5228025e9c522c39522cb
:105c4000f5228e828f83a3a3e029f0e52529f5258f
:105c5000e43526f52674011222a1125cf804f074d2
:105c6000011222a1125cf8fac395275071e5226057
:105c70006da832a933882389247823122517852516
:105c8000238526247823122517a9227c007d00ea8b
:105c90002afae433fb74071222a1126016faa3e079
:105ca000fb12159a740412224d853282853383e0eb
:105cb00060888532848533850592122532740412fa
:105cc00022a1059212699cfca3e0fd790eeefaef89
:105cd000fb121378740112224d8521c7800c852197
:105ce000c77900eefaeffb121324740512224d85da
:105cf000328285338302709b127876e022ff125d38
:105d00000222125d06221254869003d3e028f8a3e3
:105d1000e039f92274f01222cf74fe1222681225a3
:105d2000038c218d22e9fe12596bf5257414122281
:105d3000a1e0f527a3e0f52890f79ce0c395255056
:105d40000b8527828528837401025dfb7a01a925d2
:105d50001215ace9852782852883f06003025e1c5a
:105d6000852582aa827b00ea125e3d707705921239
:105d70005ad7a884a985126946705e74121222a1ae
:105d8000125e2be82434f582e439f583ecf0a3edc0
:105d9000f0e82436f582e439f583eef0900363e011
:105da000ffeef523782312251bac21ad22ea240156
:105db0000a50010b900363e0f9121b5e740112227a
:105dc0004d900363e06f6005eff91213f07a017be9
:105dd000009003a074080221491269518527828529
:105de00028838017a9251215b2e9ffc39521e495f0
:105df00022500b8527828528837407f0801ee521b9
:105e0000cfc39fffeec39f5002eeffad21effca971
:105e10002574121222a1125e391215ca8526c7ef07
:105e2000f90269ee8a828b83a3a3a3125e2f22e07c
:105e3000fca3e0fd228e828f831278ed2275f0069e
:105e4000a4f8a9f090f796126378a3e0640c22748a
:105e5000f11222cf74fe12226812250374f8122266
:105e60003712695e74061222a1ecf0a3edf08927c7
:105e70007f00e5c7f526126f29f522126f4e5003f9
:105e8000025fe6126f6550048c218003eaf521e879
:105e900014fe85328285338312785e74041222ab3d
:105ea000e5820592f0a3e583f08013888489850557
:105eb00092e0f8a3e0f9e80592f0a3e9f00eeec352
:105ec00095214003025fe65392fe12579d74021221
:105ed00022a1126007ee75f006a4f8a9f074021270
:105ee00022a112600df525a2e7500b126d111222ae
:105ef00024126d318003126d1ff585eaf523782396
:105f000012251bac84ad85790274051222a1125ea4
:105f100039121a3e740112224de960a17a01eef99c
:105f20001215ace97097ac27853282853383e02463
:105f300006faa3e03400fbeef91215a6e97003029d
:105f40005ebdeff874061222ab125ff0a882a9833f
:105f5000efc394124003025fe674042fff8e23e523
:105f6000232401fae43400fbea05921269658017e4
:105f7000ee75f006a4faabf074021222a15392fe61
:105f80001260166525601c0eeec3952240e2e522e4
:105f90006e7010888289835392fea3a374fff0a3ce
:105fa000025ebc1e74041222a15392fe12699cfa76
:105fb000a3e0fb888289830592a3a3ea7003742877
:105fc0006b601774016a700374286b600d74036a48
:105fd000700374286b6003025eabee2401f8e434b6
:105fe00000f9e8025eb98526c7eff9740802708fe0
:105ff0000592125ffa3400f58322e028f582a3e0cf
:1060000022f582e43af583e8f0a3e9f02212601168
:106010002212637de02212601d0592e022e02af543
:1060200084a3e03bf5852274f41222cf74fe122281
:1060300068122503e9ffecfeef12640efc8e82a8c5
:106040008279006039146036146033146030146053
:10605000621470030260f114700302615214700341
:106060000261a01470030261ee14700302625c14fa
:1060700070030262a11470030261520262bbec6ef3
:1060800060030262bb882189227821122517eafc6d
:10609000ebfde5842403fae43585fb121d38740218
:1060a00012224d8b22ea4522700479018002790088
