:020000040000fa
:100000000200d2021003000000000002100b0000ea
:10001000000000021013000000000002101b00008e
:10002000000000021023000000000002102b00005e
:10003000000000021033000000000002103b00002e
:10004000000000021043000000000002104b0000fe
:10005000000000021053000000000002105b0000ce
:10006000000000021063000000000002106b00009e
:10007000000000021073000000000002107b00006e
:10008000000000021083000000000002108b00003e
:100090000000000208b6e4900002781a790280029b
:1000a000f0a3d8fcd9fa7a1b7b019000e478107990
:1000b000018015e493a3ad82ae838a828b83f0a383
:1000c000aa82ab838d828e83d8e9d9e712056512a7
:1000d00008d575d00075813f751c8075931e5392ad
:1000e000fe020096001000100000f800ffff001054
:1000f0000000ffe4936670130874019366700c08a7
:10010000740293667005087403936622c008c3e006
:1001100096f50808a3e096420808a3e0964208086e
:10012000a3e09645087001d3d00822c3e493960853
:100130007401939608740293960874039396226050
:1001400016080808c6c313c618c613c618c613c6b1
:1001500018c613c6d5e0ea22e026f008a3e036f080
:1001600008a3e036f008a3e036f022e056f608a334
:10017000e056f608a3e056f608a3e056f622e0f6ad
:1001800008a3e0f608a3e0f608a3e0f622c9c0e061
:10019000e7f20809e7f20809e7f20809e7f2d0e018
:1001a000f922e6f008a3e6f008a3e6f008a3e6f0db
:1001b00022cac0e0e6f30908dafad0e0fa22cac09f
:1001c000e0e2f30908dafad0e0fa22700422600dc6
:1001d00018c6c333c608c633c6d5e0f41822e47384
:1001e0005392fed083d082251cf8c51cc39824fbf3
:1001f000cef208e520f208e9c0e07908e709f20844
:10020000defad0e0f9eff208d0e0fed0e0f208ee3e
:10021000f208e473a81ce2fe08e208f520e9c0e059
:100220007908e208f709dffae208ffd0e0f9e2080e
:10023000c0e0e208c0e0881c5392fe22e584f20888
:10024000e585f222e208f584e2f585227402800059
:10025000c9c0e0e51cc399f51cc91201b1d0e0f991
:100260002274028000c9c0e0e51cc399f51cc912c4
:1002700001bed0e0f922d083d082ecc0e0edc0e036
:10028000eec0e0efc0e0e493a3fce493a3fde493ad
:10029000a3fee493a3ffef4e4d4c60151202f2ec67
:1002a00024fffced34fffdee34fffeef34ffff8052
:1002b000e5e493a3fce493a3fde493a3fee493a3fa
:1002c000ffef4e4d4c601512032fec24fffced3474
:1002d000fffdee34fffeef34ffff80e5d0e0ffd0fe
:1002e000e0fed0e0fdd0e0fce493a3c0e0e493c0e6
:1002f000e022c0e0c0f088f012012ba8f040071205
:1003000000f3a8f0701aa3a3a3a312012ba8f0a3d3
:10031000a3a3a34013d0f0d0e0d0e0d0e00202dcf1
:10032000a3a3a3a3a3a3a3a3a3a3d0f0d0e022c01d
:10033000e0c0f088f01200f3a8f0a3a3a3a3700b11
:10034000d0f0d0e0d0e0d0e00202dca3a3d0f0d027
:10035000e02275bc0075bc005392fe22800f8a8299
:100360008b835392fee0f5bda3aa82ab83ecf8ed3c
:10037000f9e824ff1ce934fffde84970e15392fedf
:1003800022e5bdf9e5bcfae9fb5392fe227400f5c3
:10039000d374022408f5d25392fe22a2afe433f8bc
:1003a000c2af5392fe906270e0a2e740f5e9c3331a
:1003b000906272f0906270e0d2e0f0e0a2e740fb61
:1003c000e8a2e092af2274fa1201e0a2af33f8c2c1
:1003d000afed900002f0eca3f0a37462f0a374738d
:1003e000f0a3e4f0e9a3f0a37412f0a37442f0ebdd
:1003f000906272f0ea906271f07400f5d575d402e3
:1004000075d601906270e0d2e1f0e0a2e740fbe82f
:10041000a2e092af7f010202145392fe906276e056
:1004200054706430700478038002780775c6807455
:1004300080659e70fa9062707408f088c790ff28fb
:10044000e0f5f1a3e0f5f3a3e0f5f4a3e0f5f59012
:10045000ff27e0f8701490ff2ce0f586a3e0f5c4c8
:10046000a3e0f5c5a3e0f5c280177401687012908f
:10047000ff2ce0f5f8a3e0f5fba3e0f5fca3e0f525
:10048000faa2fe500ee5f1a2e14008e5ff543f4418
:1004900040f5ff22c008c0098908750900740b786f
:1004a000081201cbfae5094480fbd009d008539229
:1004b000fe2274f71201e0909093e064bf7063e550
:1004c000c7f50812035275c7007c937d007a007b44
:1004d0009012035c7c5d7d077aa37b9012035c9095
:1004e0009094e014f5097f00801674032ffef91232
:1004f0000494eec4540ff5c77c007d0812035c0f12
:10050000efc3950940e48508c71203818a088b0967
:10051000a808a909909095e0687003a3e069703e6f
:100520008038e5c7f5087fa57e02eef91204948aab
:10053000828b83eec4540ff5c778007908e02fff53
:10054000a3e824ff18e934fff9e84970f00eeec380
:10055000943040d68508c7ef700479018002790095
:100560007f04020214e51c24ecf51c5392fe90005b
:1005700001e090001af0e59d541864107005e0a2a7
:10058000e04035e5c7f8790075c700909000e06459
:100590000270010988c7e9a2e0501d1204b2e960a7
:1005a000179000017403f0059290011be0f582a3ff
:1005b000e0f58305921201de120419900001e4f0c7
:1005c00012038d12077c12076012018d7808120247
:1005d0004c12074b1205e0051c051c12088880fb15
:1005e000eec0e0a81c120261120798051c051cd081
:1005f000e0fe2274f71201e0151c151ca81c120263
:100600003ce51c24ecf51ceafeebffee2404f5842b
:10061000e43ff5858e828f83780812017e90012158
:10062000780812016b7808120276000000000500bd
:100630000000000000002007000009002007000063
:100640000901520600000902aa0600000903190761
:1006500085060592780812017e059290012578089a
:1006600012010c4032120745f2087480f20874013e
:10067000f2e4f508f509780812024c12074b12054e
:10068000e0051c051ce51c2414f51ca81c120244e2
:10069000051c051c02056090011d78081201a212bc
:1006a0000745f208e4f208f280c890011d780812ac
:1006b000017ee5095407f9e50849701490011d7899
:1006c0000812017e740b780812013fa90812039bdf
:1006d0000592e0f9ee2405fce43ffd059290011d32
:1006e000780812017e7402780812013faa08ab094b
:1006f0001203c60592e0f508e4f509f50af50b05c5
:100700009290011d78081201581207337402f20802
:10071000e4f208f2f50802067612073374038082c9
:100720000592e0600912076012018d02067675c914
:100730000880fe12073722e4a81cf2087402f208af
:100740007409f208221207377401227c007d00e54b
:100750001c2402faab93e51c2403f8e22404f922da
:10076000a81c7480f2087404f2087409f208e4f218
:10077000f508f509f50af50b087408225392fe9066
:10078000ff27e0f87006900129e4f02274016870f8
:10079000069001297401f02274fa1201e0151c156b
:1007a0001ca81c12023ce9fe8a828b83e51c2408eb
:1007b000f8e2fa08e2fb0592900129e06020e0648b
:1007c00001604ba81c120244051c051c7f0102029b
:1007d00014e586a2e040fa5392fee0f5c1a3eeffd5
:1007e00074ff2f1e0470ea12087960d7e586a2e034
:1007f00040fa8a828b835392fee0f5c1a3aa82abb2
:100800008380e4a2f840fc5392fee0f5f9a374ff64
:100810002e1e0470ee12087960a9a2f840fc8a82ac
:100820008b835392fee0f5f9a3aa82ab8380e6c0e6
:1008300084c0858011e586a2e2500be5c18a828bd7
:1008400083f0aa84ab851208796026e586a2e2408f
:1008500004a2fa50f68a848b85439201a3059290f4
:100860000129e060d0640170dda2fa50d9e5f98079
:10087000ccd085d0845392fe22ecf8edf9e824ff29
:100880001ce934fffde849227c047d007a1b7b00d3
:1008900012082f90001be05407f9a3e0fce9fdecdf
:1008a0004d60077a1f7b0012082f7a1b7b00120510
:1008b000f3225392fe2274fa1201e0151c151cea71
:1008c000feebffa81ceef208eff2aa1cab93790135
:1008d0001208b280ee12009322ffffffffffffff1e
:1008e000ffffffffffffffffffffffffffffffff18
:1008f000ffffffffffffffffffffffffffffffff08
:10090000fffffffffffffffffffffffffffffffff7
:10091000ffffffffffffffffffffffffffffffffe7
:100f000012010002000000205824feff0000010230
:100f1000030109021b0001010480250904000000ef
:100f2000fe01020409210d03e84000010104030948
:100f300004120342006c00750065006700690067d9
:100f400000610016034c006f007700200045006e22
:100f50000065007200670079000a03310032003337
:100f6000003400080344004600550000ffffffff67
:100f7000ffffffffffffffffffffffffffffffff81
:100f8000ffffffffffffffffffffffffffffffff71
:100f9000ffffffffffffffffffffffffffffffff61
:100fa000ffffffffffffffffffffffffffffffff51
:100fb000ffffffffffffffffffffffffffffffff41
:100fc000ffffffffffffffffffffffffffffffff31
:100fd000ffffffffffffffffffffffffffffffff21
:100fe000ffffffffffffffffffffffffffffffff11
:100ff000ffffffffffffffffffffffffffffffff01
:101000000211080230e5ffffffffff023d20ffff56
:10101000ffffff023dcfffffffffff023e86ffff06
:10102000ffffff0225c0ffffffffff023ae6ffffc1
:10103000ffffffffffffffffffffff023e26ffff57
:10104000ffffff023daaffffffffffffffffffffc4
:10105000ffffff0230cbffffffffffffffffffffa0
:10106000ffffffffffffffffffffff023c5dfffff2
:10107000ffffff023ef8ffffffffff023ce0ffff24
:10108000ffffff0230f0ffffffffffffffffffff4b
:10109000ffffffbf2c7f6c0000000000000000007d
:1010a0000000a07582fe75837f7400121123e4791d
:1010b000347802b800028004f709d8fce4900302f7
:1010c00078e379058002f0a3d8fcd9fa7ae47b07ab
:1010d000901144786379028015e493a3ad82ae83c6
:1010e0008a828b83f0a3aa82ab838d828e83d8e918
:1010f000d9e77582817583e774021211237582ee38
:101100007583ff740112112375d00075813f75310d
:1011100000753202753303759f007593005392fe7c
:101120000210aec09ff59fe473d09f225392fed071
:1011300083d082c09fe493c0e0740193c0e0740246
:1011400093f59f220300000201020300000f00c379
:10115000a88ee8b19dcf7f5eb98b9f41efb055f46b
:1011600001fa00960064004b0032001e001400d605
:10117000be898e000106021213151429417671fff3
:10118000c1fbe84c90728be7b3518963ab23230218
:10119000841872aa612f3b51a8e53749fbc9ca0cd4
:1011a00018532cfd45e300400000fffffffffaff4e
:1011b000ffff0000800062000000ff7f00000500cc
:1011c000060007000000010001000001000102020a
:1011d0000300020000000000020201000240420f72
:1011e0000019000000093d0000e4fffffffb349bf5
:1011f0005f8000008000100000000000000200007e
:1012000000ff0000000000080501000000000001d0
:101210000805000000000000070300000080000136
:10122000000080000004000000000007090000002a
:101230000d00000104070000000000020100000290
:10124000020000070a161b1c1b221b281b2e1b3426
:101250001b9e1ab41c961c1a1d021d081d8000043a
:1012600005800004060600000080000402800004df
:1012700004800002000b000000800006002c17cc48
:101280001360195014141dba1cdc1b201d981a542d
:101290000601ffffff0000000080ffffffff0000ce
:1012a0000000c000000012112c6fc10212112c8727
:1012b000c10212112cb2c10212112cffc102121173
:1012c0002c17c20212112c3fc20212112c8fc20223
:1012d00012112cbfc20212112c20c30212112c3c7d
:1012e000c30212112c58c30212112c7dc302121119
:1012f0002cd6c30212112c65c80212112c19c90276
:1013000012112c5ee80212112c76e80212112ce761
:10131000e80212112c2ae90212112cced20212116b
:101320002c62d30212112cd8d30212112ceed3024c
:1013300012112c1ad40212112c2fd40212112c8843
:10134000d40212112ca9d40212112c07d5021211a9
:101350002c4cd50212112cbdd50212112ce8d5024d
:1013600012112c6cd60212112c9bd60212112cba1f
:10137000d60212112cced60212112c13d702121142
:101380002c61d70212112c14ce0212112c30ce0275
:1013900012112c66ce0212112c74ce0212112ca541
:1013a000ce0212112cd2ce0212112cdbce0212115f
:1013b0002c1ecf0212112ca4cf0212112c11d0021c
:1013c00012112c62d00212112c91d00212112ce5b4
:1013d000d00212112cb7d10212112cc2d10212115b
:1013e0002cf5d10212112c26d20212112c77d20226
:1013f00012112cb4d20212112c70ea0212112c908c
:10140000ea0212112cb9ea0212112c7e7f0012118d
:101410002c927f0012112cec7f0012112ca3eb02f6
:1014200012112cede90212112c1aea0212112c4ca5
:10143000f40112112cb3f40112112cf9f401121160
:101440002c22f50112112c2ef50112112c51f5014f
:1014500012112c95f50112112cdcf50112112c3a08
:10146000f60112112c8df70112112c54f8011211f2
:101470002cfbf80112112c21f90112112c65f90134
:1014800012112cf0f90112112c05fa0112112c4342
:10149000fa0112112c63fa0112112cc5fa01121172
:1014a0002cd8fa0112112cc3fb0112112cc7fc011c
:1014b00012112c39fd0112112cd33f0012112c797d
:1014c000410012112cfd410012112c4b430012114e
:1014d0002cba430012112cf4430012112cbe44000c
:1014e00012112c3f450012112c27460012112c3fdf
:1014f000470012112c31480012112c6b49001211b7
:101500002cc4490012112c2c4a0012112ca94a009b
:1015100012112c4a4b0012112cbc4b0012112c55ed
:101520004c0012112cbb4c0012112c294d00121131
:101530002c7e4d0012112c064e0012112cbc4e00b8
:1015400012112c724f0012112c34510012112c6503
:10155000530012112caa530012112c265400121100
:101560002c8f540012112cdd540012112c895600be
:1015700012112c29570012112cb5570012112cf6fc
:10158000570012112c77590012112cd85900121142
:101590002cfa5a0012112c015c0012112c305d0043
:1015a00012112c5a5e0012112c32600012112cf014
:1015b000620012112c8e630012112c38640012117b
:1015c0002c29650012112c9c650012112cfc69005d
:1015d00012112c776c0012112c456d0012112c8504
:1015e0006f0012112c9b700012112cc4710012118b
:1015f0002cdb710012112c7cda0212112cbbda02e6
:1016000012112ce8da0212112c15db0212112c0235
:10161000dc0212112cd9dc0212112c6ffe01121106
:101620002cc8fe0112112c29ff0112112c0080017f
:1016300012112c1e800112112c3b800112112c580a
:10164000800112112c80810112112c98830112113a
:101650002cfe830112112c87840112112cc78401e6
:1016600012112cfb840112112c3d850112112cab9f
:10167000850112112c59860112112c678601121155
:101680002c9e870112112cd4890112112c5a8a0127
:1016900012112c8e8a0112112cd28b0112112cfbeb
:1016a0008c0112112c1b8d0112112c428d01121173
:1016b0002c7e8d0112112cb18d0112112c9e9101e5
:1016c00012112cc6910112112c12920112112ce749
:1016d000970112112c33980112112c7498011211d8
:1016e0002c20990112112ce7990112112c749c01e4
:1016f00012112cce9d0112112c3e9e0112112c8232
:10170000a00112112cf9a00112112c3da1011211fe
:101710002c89a10112112ce1a10112112c82a2012c
:1017200012112ccca20112112c27a30112112c3161
:10173000a30112112c68a40112112c10a501121181
:101740002c96a50112112cf1a50112112cb1a601a4
:1017500012112c52a70112112cefa80112112c10fa
:10176000a90112112c4aab0112112c7cac011211ef
:101770002c21ad0112112c82ad0112112c5bae0196
:1017800012112c61af0112112c59b00112112c6ae7
:10179000b00112112c74b00112112c71b20112118e
:1017a0002cceb20112112cfdb20112112c64b30126
:1017b00012112c93b30112112c26b40112112cba60
:1017c000b40112112c1bb50112112c91b50112118b
:1017d0002cc7b50112112cfcb50112112c1bb6013e
:1017e00012112c74b60112112c8eb60112112cbbe1
:1017f000b60112112cc9b60112112c08b701121131
:101800002c77b70112112c36e30212112cf2e302ed
:1018100012112c14e40212112c5fe40212112ca2fa
:10182000e40212112c85eb0212112cb0e10112110d
:101830002cdce10112112c24e20112112c80e201b6
:1018400012112ce1e20112112ca6e30112112cc19c
:10185000e40112112c53e60112112cfce9011211c2
:101860002cdaeb0112112cdcee0112112c20ef010d
:1018700012112c0cf00112112c11f10112112c8bf0
:10188000f20112112c00f30112112c2af401121191
:101890002c67d70212112c93d70212112caad7024f
:1018a00012112caed70212112c48d80212112ce3bf
:1018b000d90212112c00800212112c618002121127
:1018c0002c7e800212112cab800212112cd78002c8
:1018d00012112c0b810212112c5a810212112c8927
:1018e000810212112cec810212112c498202121178
:1018f0002c17830212112c91830212112c328502b3
:1019000012112cea850212112caa880212112c3f06
:101910008c0212112c808c0212112cd98c02121103
:101920002c898d0212112c578f0212112ce78f0275
:1019300012112c28900212112c7e900212112cd61a
:10194000900212112cfc900212112c4f91021211d4
:101950002c90910212112c01930212112c2294024c
:1019600012112c33940212112cb7950212112ccda6
:10197000950212112cf5950212112ca39602121148
:101980002cb8960212112cea960212112cf0970232
:1019900012112c87980212112cbd980212112c05dd
:1019a000990212112cf9990212112c549a02121157
:1019b0002c3b9b0212112cae9b0212112cf29b02ab
:1019c00012112cd89c0212112c349f0212112c647b
:1019d0009f0212112ce49f0212112cf4e402121146
:1019e0002c01e50212112c24e50212112c67e602eb
:1019f00012112c74e60212112ca2e60212112c35df
:101a0000c90212112c54c90212112c1fca02121140
:101a10002cc5cb0212112c23cc0212112c78cd0232
:101a200012112ce1cd0212112c58e90212112c8650
:101a3000e90212112cb0e90212112c1fdd02121161
:101a40002ca8dd0212112cdadd0212112c4ade0262
:101a500012112cecde0212112c1adf0212112c21b1
:101a6000eb0212112c2deb0212112c3db8011211b8
:101a70002c93b80112112c5cb90112112c6fbb010f
:101a800012112c0dbd0112112cd3bd0112112ce32a
:101a9000be0112112c83bf0112112c00c0011211c2
:101aa0002cb2c00112112c1ac30112112c9ac301bd
:101ab00012112cfec30112112ca8c40112112ca961
:101ac000c50112112caec60112112c35cb01121119
:101ad0002c86cd0112112c3dd00112112ce7d20120
:101ae00012112ce5d50112112ca7d70112112c4689
:101af000da0112112cd9de0112112c22e00112118f
:101b00002cafe00112112c39e10112112c8de101f1
:101b100012112c58e10212112cd6e10212112cecf8
:101b2000e10212112c02e20212112c18e20212112f
:101b30002c39e20212112c4fe20212112c65e20242
:101b400012112cc1b00212112c51b10212112cd45d
:101b5000b10212112cfab10212112cc6b2021211ea
:101b60002c7cb30212112cbcb30212112c42b40211
:101b700012112cb4b40212112c16b50212112c93ae
:101b8000b50212112ca6b50212112cbab50212110f
:101b90002cefb50212112c21b60212112c53b602f1
:101ba00012112c99b60212112cd9b60212112c2d39
:101bb000b70212112c3cb70212112c45b7021211b8
:101bc0002cd8b70212112c0fb90212112cbf7800b9
:101bd00012112cce780012112ccc790012112cdeaf
:101be000790012112c6c7b0012112c217c00121137
:101bf0002c8a7c0012112ca37c0012112cb97c00c1
:101c000012112cf37c0012112c367d0012112c8045
:101c10007d0012112cc97d0012112c947e0012112e
:101c20002ca27e0012112caa7e0012112cd27e0052
:101c300012112ceb7e0012112c107f0012112c308f
:101c40007f0012112c407f0012112c507f001211c6
:101c50002c627f0012112c707f0012112cabe60257
:101c600012112cd8e60212112c4da00212112c7167
:101c7000a00212112c86a00212112c24a102121112
:101c80002c4aa10212112c7da10212112c04ae02c9
:101c900012112c36ae0212112c39b00212112c6b1b
:101ca000df0212112ccddf0212112cf1df02121112
:101cb0002c40e00212112c94e00212112c35e102aa
:101cc00012112c4ee10212112c31b90212112c4ebc
:101cd000b90212112c5eba0212112cbdba021211f5
:101ce0002c65bb0212112ce4bc0212112c90bd0217
:101cf00012112cdebd0212112c43be0212112ca9ae
:101d0000be0212112cfbbe0212112c87bf0212114f
:101d10002c02c00212112cdbc00212112cbaeb02f1
:101d200012112cbeeb0212112cc0eb0212112cc6a8
:101d3000eb0212112ca3100012112c81ff011211c1
:101d40002cceea0212112c56eb02e066701008a3aa
:101d5000e066700a08a3e066700408a3e06622c388
:101d6000e7960809e7960809e7960809e796a2d2d8
:101d700065d03322c3e09608a3e09608a3e0960856
:101d8000a3e096a2d265d03322c021c3e096f5210c
:101d900008a3e096422108a3e096422108a3e0961a
:101da0004221a2d265d033e5217001d3d02122c3d4
:101db000e7960809e7960809e7960809e79622c317
:101dc000e09608a3e09608a3e09608a3e09622c058
:101dd00021c3e096f52108a3e096422108a3e096ee
:101de000422108a3e09645217001d3d021220808a2
:101df00008eac0e0ebc0e086f0e7a4fa180986f034
:101e0000e7a42afa180986f0e7a42afa180986f046
:101e1000e7a42afa1986f0e7a4fbe5f02afa1908e4
:101e200086f0e7a42bfbe5f03afa190886f0e7a460
:101e30002bfbe5f03afa18180986f0e7a4c5f02b59
:101e4000fbe43afa1908e7c5f0c6a426f6e5f03b2c
:101e5000fbe43afa1886f0e7a4f6e5f00826f6e483
:101e60003b08f6e43a08f6d0e0fbd0e0fa22e4cff3
:101e7000c0e0e4cec0e0e4cdc0e0e4ccc0e075f06a
:101e800020e626f608e633f608e633f608e633f6eb
:101e9000181818ec33fced33fdee33feef33ffc3bf
:101ea000ec9709ed9709ee9709ef97191919400f6b
:101eb000ffec97fc09ed97fd09ee97fe191906d581
:101ec000f0bfecf709edf709eef709eff71919196b
:101ed000d0e0fcd0e0fdd0e0fed0e0ff22121f45b4
:101ee000181818121e6e121f3419191922121f34d5
:101ef000191919080808e618181820e7e0121e6ecc
:101f0000121f4518181822090909e719191920e79d
:101f1000dc080808e618181820e703021e6e121fd6
:101f200045181818121e6e121f45181818121f3463
:101f300019191922e4c397f709e497f709e497f709
:101f400009e497f722e4c396f608e496f608e496c7
:101f5000f608e496f6226017080808c6a2e713c63a
:101f600018c613c618c613c618c613c6d5e0e9228c
:101f70006016080808c6c313c618c613c618c613c9
:101f8000c618c613c6d5e0ea227009080808226000
:101f900016181818c6c333c608c633c608c633c6d3
:101fa00008c633c6d5e0ea22e627f60809e637f682
:101fb0000809e637f60809e637f622e026f608a310
:101fc000e036f608a3e036f608a3e036f622e0266f
:101fd000f008a3e036f008a3e036f008a3e036f0fe
:101fe00022c3e697f60809e697f60809e697f60889
:101ff00009e697f622c3e0c696f608a3e0c696f671
:1020000008a3e0c696f608a3e0c696f622e056f6c8
:1020100008a3e056f608a3e056f608a3e056f62219
:10202000e647f60809e647f60809e647f60809e62e
:1020300047f622e046f608a3e046f608a3e046f697
:1020400008a3e046f622e046f008a3e046f008a325
:10205000e046f008a3e046f022e066f608a3e0665a
:10206000f608a3e066f608a3e066f622e0f608a309
:10207000e0f608a3e0f608a3e0f622e6f008a3e6ff
:10208000f008a3e6f008a3e6f022e0faa3e0fba341
:10209000e0fca3e0fd22eaf0a3ebf0a3ecf0a3ed5b
:1020a000f022e0fca3e0fda3e0fea3e0ff22ecf0c1
:1020b000a3edf0a3eef0a3eff022e0f8a3e0f9a384
:1020c000e0faa3e0fb22e8f0a3e9f0a3eaf0a3eb37
:1020d000f022cac0e0e6f0a308dafad0e0fa22ca99
:1020e000c0e0e0a30592f0a30592daf6d0e0ca22a0
:1020f0005392fefae9fb7921e7f0a309dafae8f056
:10210000a3ebf9f0a3ecf0a3edf0a3eef0a3eff056
:10211000a3e520f0a3e5f0f0a3e592f0a3e584f0b9
:10212000a3e585f0a3e581f0a3e531f0a3e532f066
:10213000a3e533f0a3d0e0fad0e0f0a3caf0eac000
:10214000e0e0c0e07a007b00225392fecac0e0ebe0
:10215000c0e07921e0f7a309dafae0f8a3e0f9a3f7
:10216000e0fca3e0fda3e0fea3e0ffa3e0f520a3d5
:10217000e0f5f0a3e0c0e0a3e0f584a3e0f585a3db
:10218000d0e0f592d0e0fbd0e0fae0f581a3e0f5f5
:1021900031a3e0f532a3e0f533a3d0e0d0e0e0c016
:1021a000e0a3e0c0e0ea4b70027a0122b90010bb64
:1021b0000008e88af084f8aaf022e4fbc8fa22ebcf
:1021c00070227b10c833c8c933c9335007c39ac3c0
:1021d000dbf280069a50012adbeac833f4c8c9331f
:1021e000f4c9fa2275f008e4c833c8c933c933c941
:1021f0009ac99b5004c92ac93bd5f0ecfbc833f4fb
:10220000c8e4c9fa22600d08c6a2e713c618c613af
:10221000c6d5e0f322600c08c6c313c618c613c6a1
:10222000d5e0f422700422600d18c6c333c608c678
:1022300033c6d5e0f41822253210af08f532400c31
:1022400015338008f53240021533d2af2200c0d0da
:10225000253210af08f532500c05338008f53250a6
:10226000020533d2afd0d0222532f58210af08f567
:1022700032400c15338008f53240021533d2af8559
:10228000338322c5822532c582c583353310af071b
:10229000f5338582328007f533858232d2afc5832c
:1022a000222532f582e43533f583222532f584e4a4
:1022b0003533f585222532f8e43533f9222532fa13
:1022c000e43533fb222532fce43533fd22e473533d
:1022d00092fe2532c582c0e0e53334ffc583c0e0fd
:1022e000e532c3958224f810af08858333858232a6
:1022f0008008858333858232d2afcef0a3e520f00b
:10230000a37821e608f0a3defaeff0a3e58124fa32
:10231000f8e608f0a3e608f0a3e608f0a30808e64c
:1023200008f0a3e608f0a315811581d0e0fed0e007
:10233000f8158115811581e8c0e0eec0e0225392c6
:10234000fe2532c582c0e0e53334ffc583c0e0e539
:1023500032c3958224f910af088583338582328099
:1023600008858333858232d2afcef0a3e520f0a377
:102370007821e608f0a3defaeff0a3e58124fbf86c
:10238000e608f0a3e608f0a30808e608f0a3e608cc
:10239000f0a315811581d0e0fed0e0f815811581fc
:1023a000e8c0e0eec0e0225392fe8533838532829e
:1023b000e0a3fee0a3f5207821e0a3f608dffae031
:1023c000a3ffe0a3c0e0e0a3c0e0e0a3c0e0e0a37f
:1023d000c0e0e0a3c0e010af08858232858333807f
:1023e00008858232858333d2afd083d0825392fe68
:1023f0000211295392fe853383853282e0a3fee0e9
:10240000a3f5207821e0a3f608dffae0a3ffe0a31c
:10241000c0e0e0a3c0e0e0a3c0e0e0a3c0e010aff4
:10242000088582328583338008858232858333d262
:10243000afd083d0825392fe22c0925392fec0d07e
:102440002532c582c0e0e53334ffc583c0e0e53204
:10245000c3958224f210af088583338582328008c9
:10246000858333858232d2afc8f0a3e9f0a3eaf0c6
:10247000a3ebf0a37921e709f0a3d8faecf0a3ede0
:10248000f0a3eef0a3eff0a3d0e0f0a3d0e0f0a330
:10249000d0e0f0a3e520f0a3e5f0f0a3d0e0f02237
:1024a0005392fe853383853282e0c0e0a3e0f9a336
:1024b000e0faa3e0fba37821e0f608a3dffae0fc52
:1024c000a3e0fda3e0fea3e0ffa3e0c0e0a3e0c023
:1024d000e0a3e0f5d0a3e0f520a3e0a3f5f0e0a3ae
:1024e000c0e010af0885833385823280088583334e
:1024f000858232d2afd0e0d082d083f592d0e0f89e
:10250000d0e032e584f0a3e585f022e0a3f584e095
:10251000f5852274048006740280027401c0e0f420
:1025200004122268d0e01220d222740480067402c1
:1025300080027401c0e0f404122268d0e01220dfaf
:1025400022d083d082c5f0e493a3c5f0c395f0f503
:10255000f0e493a3c395f04005e5f0048001e47531
:10256000f002a42582f582e5f03583f583e493a398
:10257000c0e0e493c0e022d083d082e9c0e0e493dd
:10258000a3c386f0c5f095f0f908e493a386f0c5df
:10259000f095f0700be493a3c3994005e904800221
:1025a000a3e475f002a42582f582e5f03583f58376
:1025b000d0e0f9e493a3c0e0e493c0e022ffffff82
:1025c000c0e0c0d075d008c092c082c083c0f07592
:1025d0009800e5a8f8c2af5392fe9004d8e0d2e18b
:1025e000f0753400e8a2e7e433fee8a2e792af1208
:1025f00012eed0f0d083d082d092d0d0d0e032c0d2
:1026000082c0835392fe9004a7e4f0a3f0a3f0a34a
:10261000f0d083d0822274f712233e79001219d8a9
:102620009003ef123854eac398f8eb99f9e82404c0
:10263000fee439ff9003fc122f29c3ee9cef9d406e
:10264000299003fa122f299003fee02af8a3e03b19
:10265000f9e8c39cf8e99df9122f38a3ecf0a3ed3b
:10266000f09003fcecf0a3ed80239003ef122b0e0f
:102670009003fc122c579003fc1238549003f11273
:102680002f3b9003f8e070047402800114f07aed9f
:102690007b0312385e800ff08532828533831225ea
:1026a0000b740212224d7f020223f374f712233eb1
:1026b000e9fe9003f9e0f8ee600924fe601d146065
:1026c0001a80329003f6e0a2e35009e860279003f5
:1026d000f9148020c2e2f0d2e380199003f6e0a260
:1026e000e2500c740868600d9003f9e0048005c2a4
:1026f000e3f0d2e2f09003f7e070089003f574ff86
:10270000f0804990600a1228ad49703d90618fe0d9
:10271000c0e09003f9e0f87408c398f8d0e0b8007e
:10272000028004c313d8fcf52174ff652170099061
:10273000600ae4f0a3048010e5212401f8e43400e9
:10274000f990600ae8f0a3e9f01226160226a674b2
:10275000f712233ee9fe24fc600624fe602a800d69
:102760009004c0e06401705d1216f6805890041a5f
:10277000e064017013900414e4f0ee700b7b091216
:10278000302cfa7900123b95900414e07008900404
:102790001274fff0802f90618fe0ff79001219d83a
:1027a0008b22a922900416e02af8a3e039f9740fcd
:1027b0005ffae82af8e439f990040c122f3b7a0a00
:1027c0007b0412385e0226a674f712233e74fe12b2
:1027d00022681225039004641228ad2412fae43909
:1027e000fb90605ce060088a828b83e0d2e1f0e8d5
:1027f0002430fce439fde82432f584e439f5859091
:10280000605ae0700690605ee060368a828b83e0fa
:10281000a2e14019d2e1f0e82422f582e439f583ff
:10282000122b041222248c828d83123301e4059230
:10283000f0a3f079008532828533835392fe02261d
:102840009ee8122bc839f58312384b858482858522
:1028500083e02ef0a3e03ff08c828d830592e0fcb4
:10286000a3e0fdc30592e09ca3e09d50c688828949
:1028700083a3a3a3a3a3a3a3a3a385828485838502
:102880008a828b83e0a2e1500474088002743e05c2
:1028900092f07b02888289830592a3a3a3a3a3a3ba
:1028a000a3a3e0fa7900123b957901808812385889
:1028b000e82274f512233e74fe12226812250312d8
:1028c0002f09f584e43ff5850592e0fc7003022aa8
:1028d000ffee242ef582e43ff58305921238548ee4
:1028e000828f83a3a3a3a3a3a3a3a385822385830a
:1028f000248e828f83a3a3a3a3a3a3a3a3a3aa82ab
:10290000ab83ee24341235ef687003a3e069701acc
:1029100074026c7003022a9874016c607b74096cf9
:1029200060258a828b8374228059ec14606a14704b
:1029300003022a9824fa601c14600c146046147078
:1029400003022adb022aff906008e0a2e65003029d
:102950002aff8030ee2439f582e43ff58380138826
:10296000828983a3a3a3e064037003022aff888201
:1029700089831228ad4970e78a828b83e0641370e3
:10298000037416f07b02852382852483e0fa7900a4
:10299000123b957901022b01ee2455123929ee24c0
:1029a0004cfce43ffdea24fff521eb34fff522e582
:1029b00021687003e522697079ee244d122b918e07
:1029c000828f83122b0c8c828d83e025e0f8e43318
:1029d000f9e82403f85001098e828f83a3a3a3a3ef
:1029e000122f3c900495e0a2e0500d8e828f83a3bd
:1029f000a3a3a3a3a3122f3b9004afe4f0a3f0a3df
:102a0000f0a37402f0900495e0a2e04003022affd4
:102a1000906062e4f08c828d83e0f875f0e2a4c8e7
:102a2000aaf075f004a42af9e8122efe122f3b0238
:102a30002affea687002eb696003022aff75210928
:102a40007522007821122517ee241bfae43ffb12b1
:102a50001d3e740212224d900495e0a2e05007ee54
:102a6000faeffb123263e40592f0ee2422f582e4e1
:102a70003ff5830592122b04122224ee2430f582b6
:102a8000e43ff583123301ee2432f582e43ff5830f
:102a9000e4f0a3f07b08805ae8240108500109ee15
:102aa000245c1235ef687003a3e06970527521054c
:102ab0007522007821122517ee2457fce43ffdee25
:102ac0002424fae43ffb121d3e740212224deefa5a
:102ad000effb1216f0e40592f08024eefaeffb1201
:102ae00012f4e40592f00592900495e0a2e0500ff4
:102af0007b07852382852483e0fa7900123b957950
:102b00000002303e122c6d7403782122a3a3e0282a
:102b1000f0a3e039f02274f812233e74fe1222680a
:102b2000122503900464e0f584a3e0f5851228b231
:102b3000e9704e1227c8e97048e584242ef582e436
:102b40003585f583e02401f0a3e03400f0906008bf
:102b5000e0c0e0e5842436f582e43585f583d0e0f5
:102b6000f0e584122bc83585122b950592a3a3e0be
:102b700028f0a3e039f0059290046412392f12383e
:102b80005e85328285338312250b740212224d80ba
:102b900032f582e43ff583122b9b22e0f8a3e0f9a3
:102ba000e828f8e933f922ee122bc83ff583122ffb
:102bb0001524fcf8e934fff98e828f83a3a3a3a325
:102bc000122f3b7f010223f3241ef582e42274f7c7
:102bd00012233e74fe1222681225038a828b83a37d
:102be000a3ac82ad839004b4ea241ef584e43bf5e3
:102bf000850592e0f8a3e0f9e828f8e933f99004b4
:102c000097e0f521a3e01232e50592e028f8a3e071
:102c100039f98c828d83122f3b9004af122c608c7b
:102c2000828d83122c579004b1122c607a207b4e37
:102c30001221ac882189228c828d83e09521f0a31a
:102c4000e09522f09004b6122c60e828f8e933f9f8
:102c5000e8122ef6022697c3e098f0a3e099f0223e
:102c6000123858900497122c6d1232eb22e0f521a5
:102c7000a3e0f5222274f312233e74fe122268129e
:102c80002503122f09f523e43ff524852382f583dc
:102c9000e0640c7011906008e054036009852382a1
:102ca000852483740df0ee2412f584e43ff5850548
:102cb00092e0a2e35008c2e3f00592022eda8e827f
:102cc0008f830592a3a3858221858322906062e091
:102cd000601079101219d8852182852283eaf0a329
:102ce000ebf01228b2e96003022ee31227c8e96074
:102cf00003022ee3906008e0c0e0ee2436f582e4a3
:102d00003ff583d0e0f09061d5e0f89061d7e068be
:102d100005926005e0d2e28003e0c2e2f005929005
:102d200004b112392f906062e06016ea24c0faeb19
:102d30003437fb123b6a9004b6122f15122ef68020
:102d400012123b549004b6122b97906064e028f066
:102d5000a3e039122f2f24fff0a3e034fff0ee247c
:102d60002b1235ef9004b3f0ee2420123929ee2413
:102d70002ef525e43ff526ee245cf584e43ff58549
:102d8000ea4b7003022e18900499e0f8852382859f
:102d90002483e0fc701e122f1a707dee2439122f4e
:102da0001d7075e8a2e04070ea2401f8e43bf99058
:102db0000497804a740d6c705f122f1a705aee24bb
:102dc00039122f1d7052e8a2e0404d85848285851e
:102dd000838525848526850592e0f8a3e0f9059290
:102de000e0c398f8a3e099f9ea24010a50010bc363
:102df00098eb999004975006eaf0a3eb8004e8f072
:102e0000a3e9122f2ff8a3e0f99004b4122f3beea0
:102e1000faeffb122bce805a9004977401f0a3e4d2
:102e2000f0ee241e122b91852182852283122b0e17
:102e30009004af123854852182852283122c578545
:102e40002382852483e0640c70288525828526836f
:102e5000e02402f8a3e03400f90592e0faa3e0fbd5
:102e6000c3e89ae99b400b8523828524837402057d
:102e700092f08e828f835392fea3a3a3a3a3a38574
:102e800082848583859060641238547a717b021243
:102e900021ac8922e82405f8e43522f9858482856d
:102ea0008583122f3b8e828f83a3a3a3a312392f76
:102eb000858482858583e0f8c3ea98eb99a2d26580
:102ec000d0335007ea0592f0a3ebf05392fe12388c
:102ed00051852582852683122b0e90046412392f8a
:102ee00012385e85328285338312250b74021222da
:102ef0004d7f060223f3122efee8f0a3e92224ea16
:102f0000f8e93402f990606422900464e0fea3e0e2
:102f1000ffee240a22122b9be822ee2432f582e4f3
:102f20003ff583122f29ec4d22e0fca3e0fd22f0b7
:102f3000852182852283e0229003efe8f0a3e9f067
:102f40002274f512233e74fe12226812250380318a
:102f5000c2e5123027c0e09004bee012300cd0e091
:102f6000f09004bee004f0a3e004f0a3e004f090cd
:102f700004c2e0700c7401f07b007a007900123b0f
:102f80009590605ae0f521906002e0a2e05004784c
:102f900000800590605de0f89004bfe0fae521282c
:102fa000f8e43400f9e86a7001e960589004bee082
:102fb000f52374012523547ff521e52312300ce01d
:102fc000f808089004bee028f074802521f582e41a
:102fd0003460f5830592900464e0f8a3e0c8240807
:102fe000f584e438f585e0a2e70592e04003022f7e
:102ff00050d2e5f012301e24db123027fa12301eb8
:103000004a022f60853282853383803b1230102242
:10301000547ff8748028f582e43460f583229004ac
:10302000bee0123010e022f012302c22900464e056
:10303000f8a3e0c82408f582e438f583e02285325d
:10304000828533835392fe12250b740212224d7f28
:10305000040223f374f512233e74fe122268122533
:103060000389210592900464e0f582a3e0f583854d
:103070008284858385a3a3a3a3a3a3a3a3e0a2e73c
:1030800040469004c1e0f8906054e0c398f5229067
:1030900004c1e02522f0ae82af838011ee2439fa1c
:1030a000e43ffb121618ea4b600312181c8522231a
:1030b00074ff2523f5220470e3e521a2e640097997
:1030c00000eefaeffb12178002303ec0e074f112fe
:1030d00024398535c675a70075a10079501219f6f7
:1030e0007f010224a0c0d075d01875bf00d0d032a7
:1030f000c0e0c0d075d018c092c082c083c0f08537
:1031000035c6e591fe759b00f4f5915392fe9060f3
:1031100002e0a2e050047800800278087900e844d8
:10312000015e6003122f41eea2e55004f912305403
:10313000eea2e75029e5a8f8c2af9004d8e0d2e0ab
:10314000f0753400e8a2e7e433f9e8a2e792afe5ce
:1031500094a2e24009759403e594a2e250faeea22b
:10316000e64003023230906061e0f99004bfe4f081
:103170009004c1f090046412392f8a828b83a3a338
:10318000a3a3a3a3a3a3e02410601224fc6009243a
:10319000fc700f1226ab806612274f806112163c1e
:1031a000805c900494e0600514601480239060605b
:1031b000e06480601be0c0e012324dd0e0801090ef
:1031c0006058e0f890605ce028f812324de028f09a
:1031d000906060e064806016e0c0e0900464e0f815
:1031e000a3e0c82413f582e438f583d0e0f090041e
:1031f00095e0a2e05005122c758003122b1690600a
:1032000059e0f89004a7e028f0906058e0f89004a6
:10321000a8e028f090605a12324490605e12324466
:1032200090605ce0f89004aae028f012162a80046e
:10323000a2e75003123935d0f0d083d082d092d09b
:10324000d0d0e032e0f89004a9e028f022ea242c63
:10325000f582e43bf583e0fa746f2af582e43404e6
:10326000f5832274f712233eea242af582e43bf523
:1032700083e025e0f8e433f974ff28f58274073918
:10328000f583e02432f8a3e03400f9ea122bc83bbe
:10329000f583e0f521a3e01232e5e8241ff8e934d4
:1032a00003f97a207b031221ac88218922ac21ad5d
:1032b000227a717b021221ac8a218b22740578213b
:1032c0001222249004b1123301ecf8edf97a717beb
:1032d000021221ac9004af122f3b9004b6ecf0a385
:1032e000edf00226a6f5221232eb22e88521f0a4a9
:1032f000c8aaf08522f0a42afa8521f0e9a42af9c7
:1033000022e521f0a3e522f02274f712233e74fe99
:10331000122268122503900464122f29123851ecee
:103320002429f582e43df583ec242bfae43dfb8a65
:10333000848b85740168497012e0f80592e028fae0
:10334000c39425402974db2afa8023e0f521e8851f
:1033500021f0a4f8aaf08521f0e9a42af90592e069
:10336000fae82af8e439f97a257b001221aceaf070
:10337000ea131313541ff8ec28f8e43df9e8242469
:10338000f582e439f5830592e0c0e074075af8d07d
:10339000e0b800028004c313d8fca2e040288005f6
:1033a000e8cac39afaec24e5f582e43df583e0f837
:1033b000eac39850ebec2af8e43df9e824c0f58222
:1033c000e439f583e0faec242cf582e43df583ea58
:1033d00002269774f612233e74fe12226812250309
:1033e00090041be09060026004740e8002740ff081
:1033f000900415e0906001f090080f1220ba9061df
:10340000951220c612178c90041ae0f521740165fc
:10341000219004137040e05402f97a1c7b041216c8
:103420005a900413e0a2e050097aa17b0475214070
:1034300080077a9b7b04752100a2e150047e808086
:10344000027e00752306782312251b7c1c7d04e573
:10345000214e44018068e0a2e050087aa17b047804
:103460004080067a9b7b04780005929004411225e7
:10347000327c227d0474132521f582e43408f5831f
:103480000592e048f9121660740112224d90041a58
:10349000e0f86005740268702e900413e0a2e0501a
:1034a000087aa17b04784080067a9b7b047800052b
:1034b000929004611225327c427d04e84404f912a2
:1034c0001660740112224d900413e0a2e0e433f977
:1034d00012165475910090041be090618260047490
:1034e000c8800274c0f085328285338312250b7444
:1034f0000212224d7f030223f3c082c0835392fe47
:10350000906002740ff09003f8e004f0640370021e
:10351000e4f0e02425906000f090080f1220ba90ab
:1035200061951220c69003f6e05420f91216541249
:10353000178c9003f6e0a2e15004d2f08002c2f0b2
:10354000a2f0e43390600cf09003f6e0a2e1503575
:1035500075d90da2e55004784080027800e8440354
:10356000f5d9e0a2e550067aa17b0480047a9b7b22
:10357000047906121630740675d9001470fae5e164
:1035800070fc75e19575910090618274c1022610fe
:1035900074f812233e74fe1222681225031236308c
:1035a00012178c1236261220ba9061951220c6127c
:1035b000365e123309123657f584e43ff58585846b
:1035c0008285858312363f121780ee24121235ef62
:1035d000a2e250180592e0f8a3e0f58388820592f4
:1035e000a3a3e02402f89061d5e028f0022b81f536
:1035f00082e43ff583e02274f812233e1236301243
:10360000178c1236261220ba9061951220c61236f7
:103610005e123309123657f582e43ff58312363fc6
:10362000121780022ba7ee2414f582e43ff58322c3
:10363000900464e0fea3e0ff906002740ff0221299
:103640003858ee2437f582e43ff583e8f0a3e9f03b
:103650007900eefaeffb221236a7ee243922ee248f
:10366000361235ef906008f0ee24181235ef9060b6
:1036700005f0ee24191235ef906006f0ee241a12d0
:1036800035ef906007f02274f812233e12363012a4
:10369000178c1236261220ba9061951220c6123667
:1036a0005e1236a7022ba7ee242cf582e43ff583a9
:1036b000e0906000f07591009004cce0906182f0a1
:1036c0002274f112233e74fe122268122503752122
:1036d000007522007c6b7d04801b888289831238f0
:1036e0004b8c828d83eef0a3eff0888289831233b6
:1036f00001882189228c828d8312384bee4f7039dc
:103700008c828d83eaf0a3ebf08a828b83e4f0a3b2
:10371000f0aa21ab2285328285338312250b7402f5
:1037200012224d7f080223f3e5232527f8e52435ef
:1037300028f98a828b83122b0ceef8eff9888289a4
:1037400083a3a38a848b850592a3a3e0f523a3e03a
:10375000f5240592e0c39523f523a3e09524f524f1
:103760008a828b83a3a3a3a3a3a3e0f525a3e0f5fb
:1037700026c3e5239525e5249526a2d265d03340be
:103780003e8a828b83122f3b8a828b83a3a3a3a3bf
:10379000858284858385123854c3e52398e524996e
:1037a000a2d265d033500d858482858583e523f0d0
:1037b000a3e524f08c828d83eaf0a3eb0237108816
:1037c000828983a3a3a3a3a3a3e0f527a3e0f528fd
:1037d000c3e49527f525e49528f526c3e52595232b
:1037e000e5269524a2d265d03350288a828b83a304
:1037f000a3a3a3a3a3a3a3e0a2e7500302372888af
:10380000828983a3a3a3a3a3a3a3a3e0a2e7500356
:103810000236da88828983a3a3a3a3858284858361
:1038200085c3e49523fce49524fd12384bc3ec9e3c
:10383000ed9fa2d265d033500b858482858583ecc1
:10384000f0a3edf0e8fce9fd0236f5e0fea3e0ffb1
:103850002290049712385822e0f8a3e0f92274f776
:1038600012233e74fe122268122503ea4b6031a235
:10387000afe433fec2af1236c18a828b838016aab0
:1038800082ab838582848583850592e0f582a3e0ff
:10389000f5831236c1e582458370e4eea2e092af73
:1038a00002269874f812233e74fe12226812250331
:1038b000eaf8ebf9e849606ca2afe433f521c2af56
:1038c00090046b12392fea4b705490046412384bf9
:1038d000eefaeffb8a828b83a3a388848985059205
:1038e000a3a3e0fca3e0fd0592e09cfca3e09dfd0a
:1038f000c3ec9405ed123abe4024eefceffdec243f
:1039000012f582e43df583e0d2e4f088828983ea0f
:10391000f0a3ebf090046b122f3b79018008e521b6
:10392000a2e092af7900022b81f582e43ff583e0bb
:10393000faa3e0fb2274f512233e74fe12226812f1
:10394000250379001219d88a238b2479771219f666
:103950009061b1e4f0e070f87403f0e0640370f893
:1039600090046b123854900464122f3be849701293
:10397000123ac6e594a2e24003023ab675940002f8
:103980003ab68882898312392f90046beaf0a3eb50
:10399000f088828983a3a3122c6d88828983a3a3d4
:1039a000a3a3e02521f8a3e03522f9e824fdfee9f0
:1039b00034ffff9060607480f0e521c39523e52219
:1039c0009524fb900464e0f584a3e0f585e52324c9
:1039d00001f8e43524f9858482858583a3a3a3a314
:1039e000a3a3a3a3e02410602f24fc600624fc60a2
:1039f0000780451233d38069123abc50168821895a
:103a000022c3e89ee99f4008e82401fee43522ff36
:103a1000122f381234f98049123abc501688218985
:103a200022c3e89ee99f4008e82401fee43522ff16
:103a3000122f381217928029900495e0a2e05005c9
:103a4000123590801ca985e5842412f582e439f5ad
:103a500083e0a2e45008c2e4f012368780031235f6
:103a6000f7aa21ab2279301219eaeefaeffb79407e
:103a70001219ea79541219f6e521c39523f8e522c3
:103a80009524f9c3e89401e9123abe500c1217a428
:103a9000e5e170fc75e121801d900367e0a2e04044
:103aa00012aa21ab221219e49004ab122096123a0a
:103ab000c680031217a41218ac023004c3eb9400a2
:103ac000a2d265d03322e5a8f8c2af9004d8e0c2f4
:103ad000e0f0753400e8a2e7a2e792af2200000010
:103ae000853487c2af22c0e0c0d075d018c092c064
:103af00082c083c0f074fc1222375392fe9004d926
:103b0000e0601c12164e900367e054117008e5c681
:103b100054384487f5c69004d9e4f0c2c78020c267
:103b2000c7aa32ab3312179ee9640170129004d910
:103b30007401f085328285338312208a1218a075b1
:103b40003400740412224dd0f0d083d082d092d0b1
:103b5000d0d0e03275c3007420c39afa744e9bfb38
:103b6000eaf5a2ebf5a35392fe22c02175c301e54d
:103b7000a2f521e5a375c300f9e5212420f8e93475
:103b80004ef9e8c39af8e99bf9e8f5a2e9f5a3d064
:103b9000215392fe2274f512233ee9feeaff8b21a7
:103ba000753400a2afe433f522c2af90057ae0f598
:103bb0002474012524540ff523900579e0652370c2
:103bc000057900121a50e52475f003a4f8a9f074e1
:103bd0000728f8740539f9e82442f582e439f583b9
:103be000eef0e82443f582e439f583eff0e824446d
:103bf000f582e439f583e521f0e52390057af0e5d7
:103c000022a2e092af7f040223f3c082c08374fc3f
:103c1000122237e5a8f8c2afe59585328285338355
:103c20005392fef0e596c0e074011222a1d0e0f0bc
:103c3000e597c0e074021222a1d0e0f0e8a2e7a26a
:103c4000e792af74031222a1e4f0853282853383b8
:103c500012208a740412224dd083d08222c0e0c088
:103c6000d075d018c092c082c083c0f0121bca1297
:103c70003c0a90060e122096e58955ab900612f08c
:103c8000e580900615f0900612e0f4f5899062d078
:103c9000e0f8a2e15027900612e0a2e5501f53abd6
:103ca000df9062d0e0a2e0e433900618f0900612b4
:103cb000e0c2e5f07b307a007906123b959006125f
:103cc000e0600e7b007a007906123b957900121baa
:103cd000d6c2c5d0f0d083d082d092d0d0d0e0323e
:103ce000c0e0c0d075d008c092c082c083c0f012be
:103cf0001bca123c0a90060e122096e58a558df8d2
:103d0000900613f0e590900616f0e8f4f58a7b0132
:103d10007a007906123b957901121bd6c2eb80b36b
:103d2000c0e074f01224399061a9e06017c2afe5d9
:103d300089f8e5abf975ab00e4f090624bf0888947
:103d400089abd2af90061de0640f7012e5c7f89002
:103d50000368e0f5c790ff1ce0f4f5ae88c7e5bb4b
:103d6000f8e5baf521e8fb90061de025e0f8e4331c
:103d7000f9741e28f582740639f583e521f0a3eb6a
:103d8000f090061de02410fb7a007906123b95e5c1
:103d9000a8f8c2af9004d8e0c2e2f0753400e8a2ff
:103da000e7a2e792af7f020224a0c0e0c0d075d0a6
:103db00018c092c0f0e5d1f875d100c2c0a2e3509e
:103dc000097b037a007904123b95d0f0023cd9c0fc
:103dd000e0c0d075d010c092c021c022c082c08384
:103de000c0f05392fe900716123eea602a9006d168
:103df000e0700c7401f07b007a007904123b95eec0
:103e0000900716f0e5c1c0e074182521f582e4346e
:103e100007f583d0e0800be5c4a2e650069006d0fb
:103e20007401f0023ed9c0e0c0d075d010c092c07d
:103e300021c022c082c083c0f0c2e95392fe900626
:103e4000d3e0fa9006d2e09a543ff8602974d42a5d
:103e5000f582e43406f583e0f974012a543f9006b4
:103e6000d3f089c1900714e06870197b027a007959
:103e700004123b95800ee5a8f8c2af9004d8e0c2ca
:103e8000e3123f588053c0e0c0d075d010c092c03c
:103e900021c022c082c083c0f05392fe9007a012be
:103ea0003eea602990075be0700b7401f07b00fa3a
:103eb0007904123b95ee9007a0f0e5f9c0e074a2fa
:103ec0002521f582e43407f583d0e0800be5fba2e1
:103ed000e6500690075a7401f0d0f0d083d082d01b
:103ee00022d021d092d0d0d0e032e0f5217401254b
:103ef00021543ffea3e06e22c0e0c0d075d010c0b8
:103f000092c021c022c082c083c0f0c2ea5392fe98
:103f100090075de0fa90075ce09a543ff8602974de
:103f20005e2af582e43407f583e0f974012a543ff0
:103f300090075df089f990079ee06870197b027a1e
:103f4000017904123b95800ee5a8f8c2af9004d821
:103f5000e0c2e4123f588081f0753400e8a2e7e443
:103f600033f9e8a2e792af22030603020203030239
:103f70000602030301050202010001010101000024
:103f80000302000005000207070002030101010807
:103f900006060503040401030602020202010f00e3
:103fa00008030505020704010109010102010102dc
:103fb00001000000030202010505020101030500e2
:103fc00001000301000000020104040203020401d5
:103fd00004010074f01222cf74f0122237e5c7f505
:103fe00028900368e0f5c77521107522007821122a
:103ff00025177cdd7d0374021222bd121d3e740262
:1040000012224d78211225177c007d007add7b037a
:10401000121d44740212224d752100805a8521829e
:10402000a882e875f06fa4faabf090036512416cba
:10403000246ef582e43bf583e0a2e050387f008fe8
:1040400082ac82e875f037a4faabf09003d312414a
:104050006c2cfae43bfbea241af582e43bf583e09e
:10406000fa74dd2cf582e43403f583e04af00fefb7
:10407000c3941040ca0521900364e0f8e521c39879
:10408000409b752100852182a88274dd12693c3431
:1040900003f583e0fa853282853383e58212693c39
:1040a0003583f583e06af00521e521c3941040d5fe
:1040b000752100852182ae827f0012415ba3a3a3fc
:1040c000a3a3a3a3a3e0f812415be048f522607725
:1040d0008f27e522a2e0505c7523018f24e5277825
:1040e00023122224a82374dd2ef582e43403f58301
:1040f000e058600479018002790074e52ef582e4cd
:104100003403f583e0586004e9d2e1f98e238f246b
:1041100074037823122224852725e5232525fae434
:104120003524fb74a02af58274f73bf583e0fa7b13
:1041300000121bc40527e522c313f522e527c3940b
:10414000085004e522708b0521e521c39408500333
:104150000240b38528c7741002461f85328285331a
:1041600083e5822ef582e43583f5832212417022a5
:10417000e02afaa3e03bfbea2274f61222cfe975ab
:10418000f037a4faabf012130c9003d3126969e56f
:10419000c7ff900368e0f5c790f79e125e44e4c342
:1041a0009af521741f9bf52278211225177c007d3a
:1041b00000121d44740212224d8fc779087cd57df0
:1041c000037a007b0012187ce96408601b752108e3
:1041d00075220078211225177c007d007ad57b039b
:1041e000121d44740212224d800e85328285338363
:1041f00012250b740212224d7f020223a774f012c3
:1042000022cf74fe1222681225038a278b2812659a
:10421000210592a3858221858322125e44ea4b60a8
:10422000158e828f83a3a3a3858223858324c3e075
:104230009aa3e09b500879011214c8024326059204
:104240009007eb12252a7b070592126519121a08ae
:10425000740412224d8e828f83a3a3a3a3a385820d
:10426000258583268e828f83e014604a146064144f
:10427000602c14600d14700302430c24fe607d0258
:104280004326852384852485059212252e85218247
:10429000852283059212434312136002431f78253f
:1042a000122517852384852485059212252e124315
:1042b00030121354801678251225178523848524ff
:1042c00085059212252e12433012132a74041222ed
:1042d0004d805a7825122517ee2417f584e43ff512
:1042e00085059212252e85238485248512252e127c
:1042f0004330121318740612224d8031ee2417f544
:1043000082e43f127878e5234524700812433d1279
:10431000135a8019782312251712433d1213307453
:104320000212224d8007aa27ab2812181c0269f33b
:10433000ee2415f582e43ff5830592e0f9852182ac
:10434000852283125bf1aa27ab282274f61222cfb2
:1043500074fe122268122503eafeebff8921126522
:10436000171219fc1249be242a1254d5e060220506
:1043700092e024fd600c24fc701474076521701118
:10438000800c740a65216006740165217003752133
:1043900000e4439201f00592f0900363e0f522ac53
:1043a00021eefaeffbe0f9121b8e900363e0652229
:1043b0006005a9221213f00241ea74f61222cfe935
:1043c000ff8c218d22900363e0fe78211225177463
:1043d0000c1222a1e0fdeffc900363e0f9121b40f8
:1043e000740212224d900363e06e6005eef9121321
:1043f000f00241f874f21222cf74fe1222681225e4
:10440000038a258b261244951219fc900363e0ff62
:10441000858482858583a3858223858324782112e0
:104420002517eefd7c048523828524831246051220
:104430001b40740212224d900363e06f6005eff998
:104440001213f0e5842417f8e43585f9888289830e
:10445000e02ef0a3e03400f074166e7017888289a5
:1044600083c3e09416a3e094004009aa25ab26126a
:1044700014c280197900852382852483125e441238
:1044800014c8e40592f0aa25ab2612181c853282c6
:10449000853383801c8c218d22e9fe125ae67b072e
:1044a000900363e0fa790122853282853383539247
:1044b000fe12250b740212224d7f060223a774f40c
:1044c0001222cf74fe1222681225038a238b241233
:1044d00044951219fc0592e0f8740768700feef924
:1044e000ac21ad22aa23ab241214d4803f740a68f5
:1044f0007010124535eefcaa21ab22e0f9121b46e2
:1045000080171245357821122517eefd7c001247e1
:104510002b121b40740212224d900363e06f600562
:10452000eff91213f0aa23ab2412181c85328285ee
:1045300033830262cfe4f00592900363e0ff2274bc
:10454000f01222cf74fe12226812250374fe12228a
:10455000378a278b288a828b83a3a3a3a3a3a3a331
:10456000a3a38582258583261265171219fc85274a
:1045700082852883a3a3e024faf52312493b8525ed
:10458000848526850592a385328285338305921220
:1045900049157e00804e900363e0ffe5842402f518
:1045a00021e43585f522782112251774fe29fd7c3a
:1045b00003858482858583124605121b407402128e
:1045c000224d900363e06f6005eff91213f085252b
:1045d00082852683e0f5212efee5842521f584e4fd
:1045e0003585f585852582852683e0f9eec39523fb
:1045f00040a48921e523c3952112490612494a1294
:1046000014c20269ee1278b9900363e0f922122213
:104610004d8532828533835392fe12250b7402122c
:10462000224d7f080223a774f01222cf74fe1222bb
:104630006812250374fe1222378a238b24ea240988
:10464000f8e4352412650b1219fc85238285248336
:10465000a3a3e024faf522125ae28584278585284f
:10466000e527242af582e43528f5837401f01269e0
:104670009b640170047e0280027e10752100801010
:10468000e06f6005eff91213f074022e2521f52179
:10469000e521c3952250535392fe900363e0ffa897
:1046a000218532828533831264313400f585eef53d
:1046b00025782512251be5842403fce43585fd12ad
:1046c000472b121b58740112224de990036370b0fe
:1046d000e06f6005eff91213f0852782852883e4e7
:1046e000f0aa23ab2412181c803e852221e5212448
:1046f000fef8e434fff98e21e8c39521f8e994002f
:10470000f98532828533835392fe12637e2401f849
:10471000a3e03400f98527828528830592a31260df
:1047200012aa23ab241214c20269ee124736059274
:10473000900363e0f9220592a3e0faa3e0fb227460
:10474000f01222cf74fe12226812250374fe122288
:10475000378a278b28ea2409f8e4352812650b12da
:1047600019fc852782852883a3a3e024fbf5211269
:10477000547b05929003d312595385822585832655
:10478000e525242af582e43526f58374010592f0a7
:104790007f00800de06e6005eef91213f074042fb7
:1047a000ffefc39521505beff88532848533851286
:1047b0005ffb8582848583850592900363e0fe75a7
:1047c0002202782212251be5252417f523e435263d
:1047d000f5247823122517124924121b5274031250
:1047e000224de990036370ace06e6005eef91213a0
:1047f000f0852582852683e4f0aa27ab2812181cb1
:10480000802ca8218532828533831263783400f9a5
:10481000e824fef582e934fff5831249618525829b
:10482000852683a3126012aa27ab281214c202693c
:10483000ee74f01222cf74fe12226812250374fe69
:104840001222378a278b288a828b83a3a3a3a3a350
:10485000a3a3a3a38582258583268a828b83a3a312
:10486000e024faf5211265171219fc12493b853232
:10487000828533831249157f008012e06e6005ee59
:10488000f91213f0852582852683e02fff85258286
:10489000852683e0f8efc395215056e5252ffae4ed
:1048a0003526fb8a828b83a385828485838590034a
:1048b00063e0fe74fc28f522782212251bea240509
:1048c000f523e43bf5247823122517124924121b03
:1048d00052740312224de9900363709fe06e6005ed
:1048e000eef91213f0126f77aa27ab2812181c806a
:1048f000128823e521c39523124906a3a312494a2e
:104900001214c20269eef895e0f9e52528f582e572
:104910002639f5832212780c242af582e438f583af
:104920007401f022858482858583a3a312595ffade
:10493000a3e0fb0592900363e0f922125d1e85322d
:1049400082853383e8f0a3e9f022a312496185321e
:1049500082853383126f6de8f0a3e9f0aa27ab28b4
:1049600022e02401f8a3e03400f92274f61222cfe9
:1049700074fe1222681225031213f0e970047a867d
:10498000801f1249be2416f584500205850592e069
:10499000a2e040047a818009121816ea4b70067a68
:1049a000827b01800d0592e0c2e0f012136c7a0068
:1049b0007b008532828533835392fe0241f0125a86
:1049c000e6e5842274f21222cf74fe1222681225c8
:1049d00003eafeebff8c258d261213f0e970047ab2
:1049e000868012124d2260047a818009121816ea1c
:1049f0004b70067a827b01803074101222a1e0f89d
:104a0000c3941450048822800375221485252385bd
:104a100026247823122517a922eefceffd12134e4f
:104a2000740212224d7a007b000244a874f0122214
:104a3000cf74fe1222681225038a278b28ecff12fe
:104a400013f0e970047a868025124d2260047a8181
:104a5000801cefa2e04005c3940450047a80800ecd
:104a60001218168a258b26ea452670067a827b0163
:104a70008034efc394165004effe80027e16740a51
:104a8000124bb012252a7b070592126519121a08db
:104a9000740412224deef9ac27ad28aa25ab2612dc
:104aa00013427a007b0002461174f01222cf74fe8a
:104ab0001222681225038a258b26ecfeedff741462
:104ac0001222a1e0f521c3941350191213f0e970da
:104ad000047a868021124d2260047a818018e525af
:104ae000452670047a80800e1218168a278b28ead1
:104af000452870067a827b01804d74080592f0a3e8
:104b0000e525f0a3e526f09007eb12252a7b0705a3
:104b100092126519121a08740412224d741212228c
:104b2000ab059212252e8e238f2405927823122511
:104b300017a921ac25ad26aa27ab28121336740479
:104b400012224d7a007b0002461174f41222cf74b7
:104b5000fe1222681225038a221213f0e970047ae9
:104b600086801a124d2260047a8180111218168aea
:104b7000238b24ae23af24ee4f70067a827b018014
:104b80002c7409124bb012252a7b07059212651965
:104b9000121a08740412224de52260047901800281
:104ba0007900eefaeffb12133c7a007b000262c63a
:104bb0000592f0a3e4f0a3f09007eb2274f0122228
:104bc000cf74fe122268122503eafeebff8c278dbc
:104bd000281213f0e970047a86801f124d226004b7
:104be0007a818016ee4f70047a80800e1218168a31
:104bf000258b26ea452670067a827b018054741242
:104c00001222a1e0f8c39414500488218003752176
:104c10001474060592f0a3eef0a3eff09007eb12e8
:104c2000252a7b070592126519121a0874041222ac
:104c30004d8527238528247823122517a921eefcea
:104c4000effdaa25ab26121348740212224d7a00fa
:104c50007b0002461174f41222cf74fe12226812f5
:104c60002503eafeebff1213f0e970047a86801a3e
:104c7000124d2260047a818011ee4f70047a808098
:104c800009121816ea4b70067a827b01802a740793
:104c9000124d1deef0a3eff0858482858583a3a3da
:104ca000a3eef0a3eff0e58424171254d5e4f0a3ab
:104cb000f01214c27a007b000262c674f41222cf92
:104cc00074fe122268122503eafeebff1213f0e9cc
:104cd00070047a86801a124d2260047a818011ee67
:104ce0004f70047a808009121816ea4b70067a8297
:104cf0007b0180267405124d1da3a3a882a983ee13
:104d0000f0a3eff08882898312579d0592a3e8f003
:104d1000a3e9f01214c27a007b000262c6124e862a
:104d2000a322125ae60592e02274f21222cf74fef8
:104d30001222681225038a218b22ecfeedff12134a
:104d4000f0e970047a868012124d2260047a818024
:104d500009121816ea4b70067a827b01801d7404d2
:104d6000124d1de521f0a3e522f00592a3a3a3eec9
:104d7000f0a3eff01214c27a007b000244a874f092
:104d80001222cf74fe1222681225038a278b288ce8
:104d9000258d261213f0e970047a86802e124d229a
:104da00060047a81802574141222a10592e0ff74b8
:104db000026f600974106f60047a80800e121816fa
:104dc0008a238b24ea452470067a827b018034741e
:104dd000030592f08f217522000592782112251784
:104de00074141222a1124eaf121d3e740212224df3
:104df000124e92858482858583124ea01214c27a47
:104e0000007b0002461174f01222cf74fe12226859
:104e10001225038a278b288c258d261213f0e97022
:104e2000047a86802e124d2260047a8180257414c3
:104e30001222a10592e0ff74026f600974106f6086
:104e4000047a80800e1218168a238b24ea45247077
:104e5000067a827b01802c8f217522007821122511
:104e60001774141222a1124eaf121d3e74021222a8
:104e70004d124e927401124e86124ea01214c27a36
:104e8000007b000246110592f085848285858305aa
:104e90009222e5842415f582e43585f583eff0222e
:104ea000124f64e525f0a3e526f0aa23ab242212d5
:104eb0005bf1e5842405fae43585fb2274f01222c7
:104ec000cf74fe1222681225038a278b288c218d2d
:104ed000221213f0e970047a868029124d226004b0
:104ee0007a81802074161222a10592e0ffc39411ea
:104ef00040047a80800e1218168a258b26ea4526f1
:104f000070067a827b01805974121222a112579d79
:104f1000e5842417f582e435851260107402059249
:104f2000f0e58424151254d5ef0592f08f237524f3
:104f300000782312251774161222a1124eaf121deb
:104f40003e740212224d858482858583124f64e56a
:104f500021f0a3e522f0aa25ab261214c27a007b29
:104f600000024611a3e527f0a3e528f00592a3a3cc
:104f7000a32274f11222cf74fe1222681225037448
:104f8000fc12223774021222a1126969e5c7f527c3
:104f9000900368e0f5c774021222a112781b8532d3
:104fa00084853385e5820592f0a3e583f08532821e
:104fb00085338305921269a1fa74021222a1059227
:104fc000e02a125108059290f79de0f525ff741d27
:104fd000c39af5268e228e2180080522efc313ff87
:104fe000052190f79ce0fce521c39c5043eec3955e
:104ff00026503d12511970e8efa2e050dfa3a3a3a1
:10500000a3a3e0640270d3752302752400782312f1
:105010002517125be6e5842ef8e43585f9e82402cd
:10502000fae439fb121d3e740212224d0e0e80acc2
:10503000ee6013858482858583a3ef60047402800b
:105040000274031250f1e52270030250e9853282a6
:105050008533835392fe1269a1f8741dc398fa95a3
:10506000e0fbc3ea9410eb9400a2d265d033407900
:1050700074021222a10592e028125108af258e2158
:105080008006efc313ff0521e521c39c5041e526af
:10509000603d5392fe12511970ecefa2e050e3a371
:1050a000a3a3a3a3e0641070d97523108e247823e2
:1050b000122517125be6e5842402fae43585fb121b
:1050c0001d3e740212224d7e1074ff2522600e8553
:1050d00084828585835392fea37406800985848229
:1050e000858583a374071250f18527c77404027065
:1050f00082f074012ef80592f008853282853383a0
:1051000005921269a528f022f584a3e03400f58504
:105110000592a3a3a3a37e002290f796127865e5db
:105120002175f006a4faabf0e82afae93bfb8a8283
:105130008b83e02274f01222cf74fe1222681225b3
:105140000374f9122237853282853383ecf0a3eda4
:10515000f08a278b28e9fe752200126f778a828bee
:10516000830592a3a3a3a385822385832474026e5f
:10517000600caa23ab24121a38e960027e0274196b
:105180001222a112641274100592f074026e600370
:10519000025218852382852483059212579de87058
:1051a0000374286970567f0074191222a1126412c8
:1051b000740a0592f0e5c7c0e074041222a1d0e0a1
:1051c0000592f0900368e0f5c7126f77059290f7ab
:1051d0009ce0f526f582ac828527828528831270b3
:1051e000795003025353852782852883a3a3125e37
:1051f00044c3ec9ae49b50258c258024740168708c
:105200000374286970047f01809e740368700374be
:10521000286970047f0280907900025360eaf525c6
:10522000e814f521801274021222a1127818e521e7
:10523000f0a3e4f015210521e521c39525400302e3
:10524000534412579a74051222a1126012852182ca
:10525000a8827900e875f006a4faabf07405122272
:10526000ab0592e02af582a3e03bf583ac82ad83e7
:105270000592e06f70c0852282aa828532848533d0
:10528000850592e02a12594774021222abe5820585
:1052900092f0a3e583126f0fe02404f52712699bb7
:1052a000f5236009e527652360030253448527231e
:1052b000ea126efd4003025344e527f0eaf522e8c6
:1052c00024010850010974021222a10592126412ed
:1052d000e80592f0a3e9126f0f125bdd1225178c1f
:1052e000828d83a3a3a31278121222a1126f371208
:1052f0001d3e740212224d8029e52175f006a4f8a6
:10530000a9f074051222a15392fe126018f87003de
:105310000252267401687003025226e86f7003027d
:1053200052260521e521c3952640cee5266521605c
:105330000302522674021222a112781874fff0a3fd
:10534000f0025236e522600b74191222a15392fe2c
:10535000126f7d74041222a15392fee0f5c7a922b8
:10536000740702460e74f71222cf74fe12226812de
:10537000250312449b1219fc0592e0f8740668603c
:105380000a7408686005740968701ce41254cc7cc7
:10539000001247360592e0f9121b8e900363e06e0f
:1053a0006005eef91213f002658674f21222cf74d2
:1053b000fe1222681225038a258b26ecffedfeecf7
:1053c00024010ce43400fd12131e8a848b857410b2
:1053d0001222a1125bedec4d701deff91215b2e92e
:1053e000fec3941540027e147d00eefceff9aa8402
:1053f000ab851215ca801aeec3941540027e148e36
:10540000217522007821122517121d3e74021222e6
:105410004deef9aa25ab2612132402448d85328263
:1054200085338302658f74f71222cf74fe122268cf
:105430001225038a848b8512546860237b081265c9
:10544000191219fc125468fae4f0900363e0fef9b3
:10545000121b4c900363e06e6005eef91213f0aa84
:1054600084ab8512181c80b512547b9003d3e028be
:10547000f8a3e039f9e812719fe02212547f22125a
:10548000548322900363e075f037a4f8a9f02274e6
:10549000f71222cf74fe122268122503124d2264e5
:1054a0000b6026e58424191254d574010592f0127c
:1054b0005ae2740b05921254ccf9121b88900363c4
:1054c000e06e6005eef91213f0026586f005929029
:1054d0000363e0fe22f582e43585f5832274f01241
:1054e00022cf74fe12226812250374fd1222377433
:1054f000011222a1ecf0a3edf089258a228b277af4
:10550000817b01e52275f006a4f8a9f090f79612c8
:105510006d31f5850592a3a3a3e0f582a3e0f583a1
:10552000858284858385a3e0853284853385f00573
:1055300092e0f52875210074ff6525600785252117
:1055400080020521900364e0f8e521c3984003023e
:10555000566f852182a882e875f06fa4fcadf090ab
:1055600003651257abe584246e1254d5e0a2e050d7
:10557000d1e8900363f0900361e584f0a3e585f042
:10558000853282853383e0131313541ffee05407e2
:10559000f526e528a2e4503de8125674f8ed39f9f5
:1055a0001262dca826b800028004c313d8fca2e073
:1055b0005023121816ea4b606174011222ab059257
:1055c00012252ead27ac22791b121552740212221d
:1055d0004d7a007b00e528a2e54003025666900361
:1055e00063e0125674fced39fdec2422f582e43db3
:1055f000f583e0ac26bc00028004c313dcfca2e00f
:10560000506412546b60047a8180111218168a2338
:105610008b24ae23af24ee4f70067a827b01804f3d
:1056200005929007eb12252a7b0805921265191244
:105630001a08740412224d74012522c0e01262e798
:1056400012719fd0e0f074011222ab059212252e48
:10565000ad27ac22791deefaeffb1215527402123f
:10566000224d7a007b0074ff652570030255427459
:10567000030269f075f037a4f8a9f09003d3e02e87
:10568000fca3e03400fdec282274f01222cf74fe5b
:1056900012226812250389218c278d287522007417
:1056a000121222a1e0fea3e0ff8e828f83e0f52597
:1056b000e5c7f52412596ef52690f79ce0f8e5262b
:1056c000c39840097522018e828f838023e52612bc
:1056d0005e4870098524c77a887b018049a9261213
:1056e00015b2e98e828f83f0c3952150077522078a
:1056f000e4f08022a821e0c398f0f8c39525500477
:1057000088238003852523e523f0ad21fca926aa63
:1057100027ab281215ca8524c7e5226005fa7b0449
:1057200080047a007b0002461174f61222cf74fec8
:10573000122268122503eaf8ecfaedfb752100e568
:10574000c7fe900368e0f5c7e814fd740c1222a1af
:1057500012579d90f79ce0fcedc39c400b75210116
:1057600088828983e4f0801eed1257a10592e0fc47
:10577000a2e7500474108002740288828983059223
:10578000f0ecf9121a448ec7e521a2e05005fa7b2d
:105790000480047a007b000241ea90f79612786553
:1057a0002275f006a4fcadf090f796e02cf584a3ea
:1057b000e03df5852274f61222cfe9ffeaf8ebf915
:1057c000e5c7fe900368e0f5c7740a1222a1e0fb6a
:1057d000c3941540067a807b01801690f79ce0c345
:1057e00098e49950067a017b0480061aeff91215a5
:1057f000648ec70241f874f01222cf74fe12226840
:1058000012250374fe122237853282853383ecf031
:10581000a3edf089257e00125968f52290f79ce0ef
:10582000c395225003025938e52275f006a4f8a961
:10583000f0059290f79612595385822785832805a3
:1058400092a3a3e0fc24fa600a14600724fb60031f
:1058500002593674141222a1e0f521740c6c700305
:1058600002591c8527848528850592a3a3a3e0f50a
:1058700082a3e0f583852584aa8485828485838537
:10588000a3a3a3a3e0f8852123ea2523f523e43489
:1058900000f524e89523e49524c365d03350057eb4
:1058a0000d0259390592a3a38582848583858521bc
:1058b00082a882790074066c882389247823701b5f
:1058c00012251774021222a112595afaa3e03400c9
:1058d000fb121d3e740212224d80311225177402f4
:1058e0001222a112595a125947aa82ab83121d3ea5
:1058f000740212224de5212525c0e08527828528e6
:1059000083a3a3a31269b0d0e00592f08527828516
:1059100028835392fea3a3e0640c700b853282852a
:105920003383125bed80047c007d00ab21aa2279d9
:10593000ff12156480050e0e0e7f048526c7eefa51
:10594000effb740202460ef582a3e03400f58305f6
:1059500092a32212600539f5832212595f2a22e0b0
:10596000fca3e0fd0592e0227f00e5c7f526900349
:1059700068e0f5c7ea142274f41222cf74fe1222f2
:10598000681225038c848d85e9ffe5c7f52112593e
:105990006efe90f79ce0c39e500479018034740e33
:1059a0001222a1e0f52260047a0280027a80eef9e8
:1059b0001215ace9701ce4f523f5247823122517a1
:1059c000ad22effcaa84ab85eef91215c474021265
:1059d000224d8521c702452c74f31222cf74fe128a
:1059e00022681225038a218b22125ae28a828b8333
:1059f000a3a3a3a3a3a3a3a3a3e0700f125bf71217
:105a00001618ea4b607812181c80f1e5c7fe900367
:105a100068e0f5c7e584242bf523e43585f5248576
:105a20002382852483126505605288828983a3a31b
:105a3000a3a3a3a3a3a3a3aa82ab83e0ff8a848b1f
:105a4000850592a3a312252e7d0188828983059264
:105a5000a3a3e024f7fcea2404fa50010b74ff2fff
:105a6000f91215c4740212224de9f525aa23ab24bc
:105a700012161812181ce525702e80a38ec78521da
:105a800082852283a3a37405f0852182852283a3c6
:105a9000a3a3a3a3a3a3a37419f07900aa21ab2203
:105aa000121324802a12181c125bf7121618ea4be4
:105ab00070f3e525f523782312251b8f23ac237d76
:105ac000007918aa21ab22121378740112224d8595
:105ad000328285338312250b740212224d7f050218
:105ae00023a7125ae62212547f9003d3125af022af
:105af000e028f584a3e039f5852274f41222cf74ee
:105b0000fe1222681225038a848b8585848285850e
:105b100083a3a3a3a3a3a3a3a3a3ae82af83e5c739
:105b2000f521900368e0f5c78e828f83e014f99029
:105b3000f79ce0c39950217401f521782112251baf
:105b40008e828f83125bed7916aa84ab851213784f
:105b5000740112224d02452c7a021215ace970d95b
:105b60001218168a238b24ae23af24ee4f8521c74b
:105b7000700c7a017b0090032e7408022149ac84da
:105b8000ad85125bf712161e858482858583a3a3db
:105b9000858221858322125bdd122517e58424048a
:105ba000fce43585fdee2404fae43ffb121d3e744f
:105bb0000212224d852182852283e08e828f83a36b
:105bc000a3f08e828f83a3a3a3a3a3a3a3a374177d
:105bd000f07900eefaeffb121324025b55e0f52397
:105be0007524007823228a828b83a3a3a3125bf1fe
:105bf00022e0fca3e0fd221262eb242bfae439fb45
:105c00002274f11222cf74fe12226812250374fb53
:105c100012223774031222a11269698927ecfeed62
:105c2000125d1974011222a1126012e5c7f52190cc
:105c30000368e0f5c78e828f83a3a3e0f8ee1269b4
:105c40003c3ff583a3a3a3a3858225858326741bec
:105c5000c398f5228025e9c522c39522f5228e82bc
:105c60008f83a3a3e029f0e52529f525e43526f562
:105c70002674011222a1125d1404f074011222a1f3
:105c8000125d14fac395275071e522606da832a900
:105c900033882389247823122517852523852624f4
:105ca0007823122517a9227c007d00ea2afae43322
:105cb000fb74071222a1126021faa3e0fb12159acd
:105cc000740412224d853282853383e060888532e8
:105cd00084853385059212253274041222a105921f
:105ce0001269a1fca3e0fd790eeefaeffb12137826
:105cf000740112224d8521c7800c8521c77900eee1
:105d0000faeffb121324740512224d85328285337b
:105d10008302708e127842e022ff125d1e22125d15
:105d200022221254839003d3e028f8a3e039f92209
:105d300074f01222cf74fe1222681225038c218d7a
:105d400022e9fe125968f52574141222a1e0f52704
:105d5000a3e0f52890f79ce0c39525500b8527829a
:105d60008528837401025e177a01a9251215ace912
:105d7000852782852883f06003025e38852582aa04
:105d8000827b00ea125e4870770592125ae2a8847c
:105d9000a98512694b705e74121222a1125bede8a4
:105da0002434f582e439f583ecf0a3edf0e82436f1
:105db000f582e439f583eef0900363e0ffeef5231e
:105dc000782312251bac21ad22ea24010a50010bd5
:105dd000900363e0f9121b5e740112224d9003637d
:105de000e06f6005eff91213f07a017b009003a0d9
:105df00074080221491269568527828528838017f5
:105e0000a9251215b2e9ffc39521e49522500b850f
:105e100027828528837407f0801ee521cfc39fff6a
:105e2000eec39f5002eeffad21effca925741212c4
:105e300022a1125e441215ca8526c7eff90269f342
:105e40008e828f831278b92275f006a4f8a9f0909b
:105e5000f796126383a3e0640c2274f11222cf74cc
:105e6000fe12226812250374f81222371269637435
:105e7000061222a1ecf0a3edf089277f00e5c7f51b
:105e800026126f1cf522126f415003025ff1126f50
:105e90005850048c218003eaf521e814fe853282f3
:105ea00085338312782a74041222abe5820592f0be
:105eb000a3e583f08013888489850592e0f8a3e048
:105ec000f9e80592f0a3e9f00eeec3952140030234
:105ed0005ff15392fe12579a74021222a1126012bd
:105ee000ee75f006a4f8a9f074021222a11260184f
:105ef000f525a2e7500b126d16122224126d368082
:105f000003126d24f585eaf523782312251bac8452
:105f1000ad85790274051222a1125e44121a3e74f4
:105f20000112224de960a17a01eef91215ace97077
:105f300097ac27853282853383e02406faa3e034c8
:105f400000fbeef91215a6e97003025ec8eff874c3
:105f5000061222ab125ffba882a983efc394124002
:105f600003025ff174042fff8e23e5232401fae47a
:105f70003400fbea059212696a8017ee75f006a4f8
:105f8000faabf074021222a15392fe126021652531
:105f9000601c0eeec3952240e2e5226e70108882ee
:105fa00089835392fea3a374fff0a3025ec71e74fd
:105fb000041222a15392fe1269a1faa3e0fb888287
:105fc00089830592a3a3ea700374286b6017740198
:105fd0006a700374286b600d74036a700374286b15
:105fe0006003025eb6ee2401f8e43400f9e8025ed4
:105ff000c48526c7eff97408027082059212600505
:106000003400f58322e028f582a3e022f582e43a09
:10601000f583e8f0a3e9f02212601c22126388e005
:10602000221260280592e022e02af584a3e03bf5e5
:10603000852274f41222cf74fe122268122503e91d
:10604000ffecfeef126417fc8e82a88279006039a3
:1060500014603614603314603014606214700302ec
:1060600060fc14700302615d1470030261ab147074
:10607000030261f91470030262671470030262acd8
:1060800014700302615d0262c6ec6e60030262c6b8
:10609000882189227821122517eafcebfde584246a
:1060a00003fae43585fb121d38740212224d8b224f
:1060b000ea452270047901800279000262c6858473
